{
  "_format": "hh-sol-artifact-1",
  "contractName": "ERC721VaultImplementation",
  "sourceName": "src/implementations/ERC721VaultImplementation.sol",
  "abi": [
    {
      "inputs": [],
      "stateMutability": "nonpayable",
      "type": "constructor"
    },
    {
      "inputs": [],
      "name": "ApprovalCallerNotOwnerNorApproved",
      "type": "error"
    },
    {
      "inputs": [],
      "name": "ApprovalQueryForNonexistentToken",
      "type": "error"
    },
    {
      "inputs": [],
      "name": "BalanceQueryForZeroAddress",
      "type": "error"
    },
    {
      "inputs": [],
      "name": "DelegationFailed",
      "type": "error"
    },
    {
      "inputs": [],
      "name": "EmptyArrays",
      "type": "error"
    },
    {
      "inputs": [],
      "name": "ExternalIdAlreadyMinted",
      "type": "error"
    },
    {
      "inputs": [],
      "name": "InitializationFailed",
      "type": "error"
    },
    {
      "inputs": [],
      "name": "InvalidBeacon",
      "type": "error"
    },
    {
      "inputs": [],
      "name": "InvalidInitialization",
      "type": "error"
    },
    {
      "inputs": [],
      "name": "MintERC2309QuantityExceedsLimit",
      "type": "error"
    },
    {
      "inputs": [],
      "name": "MintToZeroAddress",
      "type": "error"
    },
    {
      "inputs": [],
      "name": "MintZeroQuantity",
      "type": "error"
    },
    {
      "inputs": [],
      "name": "NotCompatibleWithSpotMints",
      "type": "error"
    },
    {
      "inputs": [],
      "name": "NotDiamond",
      "type": "error"
    },
    {
      "inputs": [],
      "name": "NotInitializing",
      "type": "error"
    },
    {
      "inputs": [],
      "name": "NotTokenOwnerOrApproved",
      "type": "error"
    },
    {
      "inputs": [
        {
          "internalType": "address",
          "name": "owner",
          "type": "address"
        }
      ],
      "name": "OwnableInvalidOwner",
      "type": "error"
    },
    {
      "inputs": [
        {
          "internalType": "address",
          "name": "account",
          "type": "address"
        }
      ],
      "name": "OwnableUnauthorizedAccount",
      "type": "error"
    },
    {
      "inputs": [],
      "name": "OwnerQueryForNonexistentToken",
      "type": "error"
    },
    {
      "inputs": [],
      "name": "OwnershipNotInitializedForExtraData",
      "type": "error"
    },
    {
      "inputs": [],
      "name": "SequentialMintExceedsLimit",
      "type": "error"
    },
    {
      "inputs": [],
      "name": "SequentialUpToTooSmall",
      "type": "error"
    },
    {
      "inputs": [],
      "name": "SpotMintTokenIdTooSmall",
      "type": "error"
    },
    {
      "inputs": [],
      "name": "TokenAlreadyExists",
      "type": "error"
    },
    {
      "inputs": [],
      "name": "TokenDoesNotExist",
      "type": "error"
    },
    {
      "inputs": [],
      "name": "TokenMappingNotFound",
      "type": "error"
    },
    {
      "inputs": [],
      "name": "TransferCallerNotOwnerNorApproved",
      "type": "error"
    },
    {
      "inputs": [],
      "name": "TransferFromIncorrectOwner",
      "type": "error"
    },
    {
      "inputs": [],
      "name": "TransferToNonERC721ReceiverImplementer",
      "type": "error"
    },
    {
      "inputs": [],
      "name": "TransferToZeroAddress",
      "type": "error"
    },
    {
      "inputs": [],
      "name": "URIQueryForNonexistentToken",
      "type": "error"
    },
    {
      "inputs": [],
      "name": "ZeroAddress",
      "type": "error"
    },
    {
      "anonymous": false,
      "inputs": [
        {
          "indexed": true,
          "internalType": "address",
          "name": "owner",
          "type": "address"
        },
        {
          "indexed": true,
          "internalType": "address",
          "name": "approved",
          "type": "address"
        },
        {
          "indexed": true,
          "internalType": "uint256",
          "name": "tokenId",
          "type": "uint256"
        }
      ],
      "name": "Approval",
      "type": "event"
    },
    {
      "anonymous": false,
      "inputs": [
        {
          "indexed": true,
          "internalType": "address",
          "name": "owner",
          "type": "address"
        },
        {
          "indexed": true,
          "internalType": "address",
          "name": "operator",
          "type": "address"
        },
        {
          "indexed": false,
          "internalType": "bool",
          "name": "approved",
          "type": "bool"
        }
      ],
      "name": "ApprovalForAll",
      "type": "event"
    },
    {
      "anonymous": false,
      "inputs": [
        {
          "indexed": false,
          "internalType": "string",
          "name": "newBaseURI",
          "type": "string"
        }
      ],
      "name": "BaseURIUpdated",
      "type": "event"
    },
    {
      "anonymous": false,
      "inputs": [
        {
          "indexed": true,
          "internalType": "address",
          "name": "beacon",
          "type": "address"
        }
      ],
      "name": "BeaconSet",
      "type": "event"
    },
    {
      "anonymous": false,
      "inputs": [
        {
          "indexed": true,
          "internalType": "uint256",
          "name": "fromTokenId",
          "type": "uint256"
        },
        {
          "indexed": false,
          "internalType": "uint256",
          "name": "toTokenId",
          "type": "uint256"
        },
        {
          "indexed": true,
          "internalType": "address",
          "name": "from",
          "type": "address"
        },
        {
          "indexed": true,
          "internalType": "address",
          "name": "to",
          "type": "address"
        }
      ],
      "name": "ConsecutiveTransfer",
      "type": "event"
    },
    {
      "anonymous": false,
      "inputs": [
        {
          "indexed": true,
          "internalType": "address",
          "name": "implementation",
          "type": "address"
        },
        {
          "indexed": true,
          "internalType": "bool",
          "name": "success",
          "type": "bool"
        }
      ],
      "name": "DelegatedCall",
      "type": "event"
    },
    {
      "anonymous": false,
      "inputs": [
        {
          "indexed": false,
          "internalType": "string",
          "name": "name",
          "type": "string"
        },
        {
          "indexed": false,
          "internalType": "string",
          "name": "symbol",
          "type": "string"
        }
      ],
      "name": "DetailsUpdated",
      "type": "event"
    },
    {
      "anonymous": false,
      "inputs": [
        {
          "indexed": false,
          "internalType": "uint64",
          "name": "version",
          "type": "uint64"
        }
      ],
      "name": "Initialized",
      "type": "event"
    },
    {
      "anonymous": false,
      "inputs": [
        {
          "indexed": true,
          "internalType": "address",
          "name": "previousOwner",
          "type": "address"
        },
        {
          "indexed": true,
          "internalType": "address",
          "name": "newOwner",
          "type": "address"
        }
      ],
      "name": "OwnershipTransferred",
      "type": "event"
    },
    {
      "anonymous": false,
      "inputs": [
        {
          "indexed": true,
          "internalType": "address",
          "name": "from",
          "type": "address"
        },
        {
          "indexed": true,
          "internalType": "uint256",
          "name": "internalTokenId",
          "type": "uint256"
        },
        {
          "indexed": true,
          "internalType": "uint256",
          "name": "externalTokenId",
          "type": "uint256"
        },
        {
          "indexed": false,
          "internalType": "bytes",
          "name": "data",
          "type": "bytes"
        }
      ],
      "name": "TokenBurned",
      "type": "event"
    },
    {
      "anonymous": false,
      "inputs": [
        {
          "indexed": true,
          "internalType": "address",
          "name": "to",
          "type": "address"
        },
        {
          "indexed": true,
          "internalType": "uint256",
          "name": "internalTokenId",
          "type": "uint256"
        },
        {
          "indexed": true,
          "internalType": "uint256",
          "name": "externalTokenId",
          "type": "uint256"
        },
        {
          "indexed": false,
          "internalType": "bytes",
          "name": "data",
          "type": "bytes"
        }
      ],
      "name": "TokenMinted",
      "type": "event"
    },
    {
      "anonymous": false,
      "inputs": [
        {
          "indexed": true,
          "internalType": "address",
          "name": "from",
          "type": "address"
        },
        {
          "indexed": true,
          "internalType": "address",
          "name": "to",
          "type": "address"
        },
        {
          "indexed": true,
          "internalType": "uint256",
          "name": "tokenId",
          "type": "uint256"
        }
      ],
      "name": "Transfer",
      "type": "event"
    },
    {
      "inputs": [
        {
          "internalType": "address",
          "name": "to",
          "type": "address"
        },
        {
          "internalType": "uint256",
          "name": "tokenId",
          "type": "uint256"
        }
      ],
      "name": "approve",
      "outputs": [],
      "stateMutability": "payable",
      "type": "function"
    },
    {
      "inputs": [
        {
          "internalType": "address",
          "name": "owner",
          "type": "address"
        }
      ],
      "name": "balanceOf",
      "outputs": [
        {
          "internalType": "uint256",
          "name": "",
          "type": "uint256"
        }
      ],
      "stateMutability": "view",
      "type": "function"
    },
    {
      "inputs": [
        {
          "internalType": "uint256[]",
          "name": "internalTokenIds",
          "type": "uint256[]"
        }
      ],
      "name": "batchBurn",
      "outputs": [],
      "stateMutability": "nonpayable",
      "type": "function"
    },
    {
      "inputs": [
        {
          "internalType": "uint256[]",
          "name": "internalTokenIds",
          "type": "uint256[]"
        },
        {
          "internalType": "bytes",
          "name": "data",
          "type": "bytes"
        }
      ],
      "name": "batchBurnWithData",
      "outputs": [],
      "stateMutability": "nonpayable",
      "type": "function"
    },
    {
      "inputs": [
        {
          "internalType": "address",
          "name": "to",
          "type": "address"
        },
        {
          "internalType": "uint256[]",
          "name": "externalTokenIds",
          "type": "uint256[]"
        }
      ],
      "name": "batchMint",
      "outputs": [],
      "stateMutability": "nonpayable",
      "type": "function"
    },
    {
      "inputs": [
        {
          "internalType": "address",
          "name": "to",
          "type": "address"
        },
        {
          "internalType": "uint256[]",
          "name": "externalTokenIds",
          "type": "uint256[]"
        },
        {
          "internalType": "bytes",
          "name": "data",
          "type": "bytes"
        }
      ],
      "name": "batchMintWithData",
      "outputs": [],
      "stateMutability": "nonpayable",
      "type": "function"
    },
    {
      "inputs": [],
      "name": "beacon",
      "outputs": [
        {
          "internalType": "address",
          "name": "beaconAddress",
          "type": "address"
        }
      ],
      "stateMutability": "view",
      "type": "function"
    },
    {
      "inputs": [
        {
          "internalType": "uint256",
          "name": "internalTokenId",
          "type": "uint256"
        }
      ],
      "name": "burn",
      "outputs": [],
      "stateMutability": "nonpayable",
      "type": "function"
    },
    {
      "inputs": [
        {
          "internalType": "uint256",
          "name": "internalTokenId",
          "type": "uint256"
        },
        {
          "internalType": "bytes",
          "name": "data",
          "type": "bytes"
        }
      ],
      "name": "burnWithData",
      "outputs": [],
      "stateMutability": "nonpayable",
      "type": "function"
    },
    {
      "inputs": [
        {
          "internalType": "uint256",
          "name": "tokenId",
          "type": "uint256"
        }
      ],
      "name": "getApproved",
      "outputs": [
        {
          "internalType": "address",
          "name": "",
          "type": "address"
        }
      ],
      "stateMutability": "view",
      "type": "function"
    },
    {
      "inputs": [
        {
          "internalType": "uint256",
          "name": "internalTokenId",
          "type": "uint256"
        }
      ],
      "name": "getExternalTokenId",
      "outputs": [
        {
          "internalType": "uint256",
          "name": "",
          "type": "uint256"
        }
      ],
      "stateMutability": "view",
      "type": "function"
    },
    {
      "inputs": [
        {
          "internalType": "uint256",
          "name": "externalTokenId",
          "type": "uint256"
        }
      ],
      "name": "getInternalTokenId",
      "outputs": [
        {
          "internalType": "uint256",
          "name": "",
          "type": "uint256"
        }
      ],
      "stateMutability": "view",
      "type": "function"
    },
    {
      "inputs": [],
      "name": "implementation",
      "outputs": [
        {
          "internalType": "address",
          "name": "",
          "type": "address"
        }
      ],
      "stateMutability": "view",
      "type": "function"
    },
    {
      "inputs": [
        {
          "internalType": "string",
          "name": "name_",
          "type": "string"
        },
        {
          "internalType": "string",
          "name": "symbol_",
          "type": "string"
        },
        {
          "internalType": "address",
          "name": "diamondAddress",
          "type": "address"
        }
      ],
      "name": "initialize",
      "outputs": [],
      "stateMutability": "nonpayable",
      "type": "function"
    },
    {
      "inputs": [],
      "name": "interfaceId",
      "outputs": [
        {
          "internalType": "bytes4",
          "name": "",
          "type": "bytes4"
        }
      ],
      "stateMutability": "pure",
      "type": "function"
    },
    {
      "inputs": [
        {
          "internalType": "address",
          "name": "owner",
          "type": "address"
        },
        {
          "internalType": "address",
          "name": "operator",
          "type": "address"
        }
      ],
      "name": "isApprovedForAll",
      "outputs": [
        {
          "internalType": "bool",
          "name": "",
          "type": "bool"
        }
      ],
      "stateMutability": "view",
      "type": "function"
    },
    {
      "inputs": [
        {
          "internalType": "address",
          "name": "to",
          "type": "address"
        },
        {
          "internalType": "uint256",
          "name": "externalTokenId",
          "type": "uint256"
        }
      ],
      "name": "mint",
      "outputs": [],
      "stateMutability": "nonpayable",
      "type": "function"
    },
    {
      "inputs": [
        {
          "internalType": "address",
          "name": "to",
          "type": "address"
        },
        {
          "internalType": "uint256",
          "name": "externalTokenId",
          "type": "uint256"
        },
        {
          "internalType": "bytes",
          "name": "data",
          "type": "bytes"
        }
      ],
      "name": "mintWithData",
      "outputs": [],
      "stateMutability": "nonpayable",
      "type": "function"
    },
    {
      "inputs": [],
      "name": "name",
      "outputs": [
        {
          "internalType": "string",
          "name": "",
          "type": "string"
        }
      ],
      "stateMutability": "view",
      "type": "function"
    },
    {
      "inputs": [],
      "name": "owner",
      "outputs": [
        {
          "internalType": "address",
          "name": "",
          "type": "address"
        }
      ],
      "stateMutability": "view",
      "type": "function"
    },
    {
      "inputs": [
        {
          "internalType": "uint256",
          "name": "tokenId",
          "type": "uint256"
        }
      ],
      "name": "ownerOf",
      "outputs": [
        {
          "internalType": "address",
          "name": "",
          "type": "address"
        }
      ],
      "stateMutability": "view",
      "type": "function"
    },
    {
      "inputs": [],
      "name": "renounceOwnership",
      "outputs": [],
      "stateMutability": "nonpayable",
      "type": "function"
    },
    {
      "inputs": [
        {
          "internalType": "address",
          "name": "from",
          "type": "address"
        },
        {
          "internalType": "address",
          "name": "to",
          "type": "address"
        },
        {
          "internalType": "uint256",
          "name": "tokenId",
          "type": "uint256"
        }
      ],
      "name": "safeTransferFrom",
      "outputs": [],
      "stateMutability": "payable",
      "type": "function"
    },
    {
      "inputs": [
        {
          "internalType": "address",
          "name": "from",
          "type": "address"
        },
        {
          "internalType": "address",
          "name": "to",
          "type": "address"
        },
        {
          "internalType": "uint256",
          "name": "tokenId",
          "type": "uint256"
        },
        {
          "internalType": "bytes",
          "name": "_data",
          "type": "bytes"
        }
      ],
      "name": "safeTransferFrom",
      "outputs": [],
      "stateMutability": "payable",
      "type": "function"
    },
    {
      "inputs": [
        {
          "internalType": "address",
          "name": "operator",
          "type": "address"
        },
        {
          "internalType": "bool",
          "name": "approved",
          "type": "bool"
        }
      ],
      "name": "setApprovalForAll",
      "outputs": [],
      "stateMutability": "nonpayable",
      "type": "function"
    },
    {
      "inputs": [
        {
          "internalType": "string",
          "name": "baseURI",
          "type": "string"
        }
      ],
      "name": "setBaseURI",
      "outputs": [],
      "stateMutability": "nonpayable",
      "type": "function"
    },
    {
      "inputs": [
        {
          "internalType": "string",
          "name": "name_",
          "type": "string"
        },
        {
          "internalType": "string",
          "name": "symbol_",
          "type": "string"
        }
      ],
      "name": "setDetails",
      "outputs": [],
      "stateMutability": "nonpayable",
      "type": "function"
    },
    {
      "inputs": [
        {
          "internalType": "bytes4",
          "name": "_interfaceId",
          "type": "bytes4"
        }
      ],
      "name": "supportsInterface",
      "outputs": [
        {
          "internalType": "bool",
          "name": "",
          "type": "bool"
        }
      ],
      "stateMutability": "view",
      "type": "function"
    },
    {
      "inputs": [],
      "name": "symbol",
      "outputs": [
        {
          "internalType": "string",
          "name": "",
          "type": "string"
        }
      ],
      "stateMutability": "view",
      "type": "function"
    },
    {
      "inputs": [
        {
          "internalType": "uint256",
          "name": "tokenId",
          "type": "uint256"
        }
      ],
      "name": "tokenURI",
      "outputs": [
        {
          "internalType": "string",
          "name": "",
          "type": "string"
        }
      ],
      "stateMutability": "view",
      "type": "function"
    },
    {
      "inputs": [],
      "name": "totalSupply",
      "outputs": [
        {
          "internalType": "uint256",
          "name": "result",
          "type": "uint256"
        }
      ],
      "stateMutability": "view",
      "type": "function"
    },
    {
      "inputs": [
        {
          "internalType": "address",
          "name": "from",
          "type": "address"
        },
        {
          "internalType": "address",
          "name": "to",
          "type": "address"
        },
        {
          "internalType": "uint256",
          "name": "tokenId",
          "type": "uint256"
        }
      ],
      "name": "transferFrom",
      "outputs": [],
      "stateMutability": "payable",
      "type": "function"
    },
    {
      "inputs": [
        {
          "internalType": "address",
          "name": "newOwner",
          "type": "address"
        }
      ],
      "name": "transferOwnership",
      "outputs": [],
      "stateMutability": "nonpayable",
      "type": "function"
    },
    {
      "inputs": [],
      "name": "version",
      "outputs": [
        {
          "internalType": "string",
          "name": "",
          "type": "string"
        }
      ],
      "stateMutability": "pure",
      "type": "function"
    }
  ],
  "bytecode": "0x6080806040523460aa575f516020612b285f395f51905f525460ff8160401c16609b576002600160401b03196001600160401b038216016049575b604051612a7990816100af8239f35b6001600160401b0319166001600160401b039081175f516020612b285f395f51905f525581527fc7f505b2f371ae2175ee4913f4499e1f2633a7b5936321eed1cdaeb6115181d290602090a15f80603a565b63f92ee8a960e01b5f5260045ffd5b5f80fdfe60806040526004361015610011575f80fd5b5f3560e01c806301ffc9a71461023457806306fdde031461022f578063077f224a1461022a578063081812fc14610225578063095ea7b31461022057806318160ddd1461021b57806323b872dd146102165780633c9dcebe1461021157806340c10f191461020c57806342842e0e1461020757806342966c6814610202578063462d29e1146101fd5780634684d7e9146101f857806348d9ba90146101f357806354fd4d50146101ee57806355f804b3146101e957806359659e90146101e45780635c60da1b146101df5780636352211e146101da57806370a08231146101d5578063715018a6146101d05780638d01616d146101cb5780638da5cb5b146101c657806395d89b41146101c157806396adfe42146101bc578063a22cb465146101b7578063a64d0cd4146101b2578063b7b090ee146101ad578063b88d4fde146101a8578063b9bcd756146101a3578063c87b56dd1461019e578063dc8e92ea14610199578063e985e9c5146101945763f2fde38b1461018f575f80fd5b61157f565b611542565b6114da565b611409565b611382565b611328565b6110cf565b6110ad565b611035565b610f53565b610e96565b610e62565b610e29565b610dc2565b610d6e565b610d3f565b610d25565b610cde565b610b64565b610b21565b610adc565b610a69565b6109e3565b610972565b61094e565b610898565b61082c565b61081a565b610790565b6106c5565b61066a565b6104cb565b61036e565b61024f565b6001600160e01b031981160361024b57565b5f80fd5b3461024b57602036600319011261024b576102ab60043561026f81610239565b63ffffffff60e01b16630505448b60e01b8114908115610303575b81156102f2575b81156102af575b5060405190151581529081906020820190565b0390f35b6301ffc9a760e01b8114915081156102e1575b81156102d0575b505f610298565b635b5e139f60e01b1490505f6102c9565b6380ac58cd60e01b811491506102c2565b637a54af9360e11b81149150610291565b630eecd14b60e11b8114915061028a565b5f5b8381106103255750505f910152565b8181015183820152602001610316565b9060209161034e81518092818552858086019101610314565b601f01601f1916010190565b90602061036b928181520190610335565b90565b3461024b575f36600319011261024b576040515f5f5160206129c45f395f51905f525461039a816115a8565b808452906001811690811561043857506001146103ce575b6102ab836103c2818503826112b6565b6040519182918261035a565b5f5160206129c45f395f51905f525f9081527f933ecf8acb7824b680a8d16f3ff3db8864228d986aa4c2ebab1eeb2703b4beb3939250905b80821061041e575090915081016020016103c26103b2565b919260018160209254838588010152019101909291610406565b60ff191660208086019190915291151560051b840190910191506103c290506103b2565b9181601f8401121561024b578235916001600160401b03831161024b576020838186019501011161024b57565b604435906001600160a01b038216820361024b57565b600435906001600160a01b038216820361024b57565b602435906001600160a01b038216820361024b57565b3461024b57606036600319011261024b576004356001600160401b03811161024b576104fb90369060040161045c565b6024356001600160401b03811161024b5761051a90369060040161045c565b610522610489565b915f516020612a245f395f51905f52549360ff8560081c165f1461066057303b155b156105f55761056a9461055f9060081c60ff161590565b1590565b958661059a57611697565b61057057005b61059861ff00195f516020612a245f395f51905f5254165f516020612a245f395f51905f5255565b005b6105c661010061ff00195f516020612a245f395f51905f525416175f516020612a245f395f51905f5255565b6105f0600160ff195f516020612a245f395f51905f525416175f516020612a245f395f51905f5255565b611697565b60405162461bcd60e51b815260206004820152603760248201527f455243373231415f5f496e697469616c697a61626c653a20636f6e747261637460448201527f20697320616c726561647920696e697469616c697a65640000000000000000006064820152608490fd5b60ff851615610544565b3461024b57602036600319011261024b5760043561068781612220565b156106b6575f525f5160206129a45f395f51905f52602052602060018060a01b0360405f205416604051908152f35b6333d1c03960e21b5f5260045ffd5b604036600319011261024b576106d961049f565b602435906001600160a01b036106ee836122c3565b1690813303610757575b5f8381525f5160206129a45f395f51905f526020526040812080546001600160a01b0319166001600160a01b039390931692831790559091907f8c5be1e5ebec7d5bd14f71427d1e84f3dd0314c0f7b2291e5b200ac8c7c3b9259080a4005b60ff61077b3361076685611d38565b9060018060a01b03165f5260205260405f2090565b54166106f8576367d9dca160e11b5f5260045ffd5b3461024b575f36600319011261024b575f5160206129445f395f51905f52547f2569078dfb4b0305704d3008e7403993ae9601b85f7ae5e742de3de8f8011c415460405191035f19018152602090f35b606090600319011261024b576004356001600160a01b038116810361024b57906024356001600160a01b038116810361024b579060443590565b610598610826366107e0565b91611d70565b3461024b57604036600319011261024b576004356024356001600160401b03811161024b5761085f90369060040161045c565b6003549192916001600160a01b0316330361088957610598926108839136916112f2565b90612333565b636825b1d560e11b5f5260045ffd5b3461024b57604036600319011261024b576108b161049f565b60035460243591906001600160a01b0316330361088957815f5260016020526108de60405f205415611eab565b5f5160206129445f395f51905f5254906108f7816124ee565b815f525f6020528260405f2055825f5260016020528160405f20557f992c36651c4df7327a1bba185e1011897742ab72b49adf46c5eb90ae8c4e16dd6040805192602084525f602085015260018060a01b031692a4005b61059861095a366107e0565b906040519261096a6020856112b6565b5f8452612091565b3461024b57602036600319011261024b57600354600435906001600160a01b0316330361088957604051610598916109ab6020836112b6565b5f8252612333565b9181601f8401121561024b578235916001600160401b03831161024b576020808501948460051b01011161024b57565b3461024b57604036600319011261024b576004356001600160401b03811161024b57610a139036906004016109b3565b906024356001600160401b03811161024b57610a3390369060040161045c565b600354909291906001600160a01b0316330361088957610a5b610a6392610598953691611ec1565b9236916112f2565b90612690565b3461024b57604036600319011261024b57610a8261049f565b6024356001600160401b03811161024b57610aa19036906004016109b3565b6003549192916001600160a01b031633036108895761059892610ac5913691611ec1565b60405191610ad46020846112b6565b5f83526126d8565b3461024b57602036600319011261024b57600435610b01610afc82612220565b611f16565b5f525f602052602060405f2054610b19811515611f2c565b604051908152f35b3461024b575f36600319011261024b576102ab604051610b426040826112b6565b60018152603160f81b6020820152604051918291602083526020830190610335565b3461024b57602036600319011261024b576004356001600160401b03811161024b57610b9490369060040161045c565b6003546001600160a01b03163303610889576001600160401b038111610cd957610bc881610bc36002546115a8565b611830565b5f91601f8211600114610c3957610c1682807f6741b2fc379fad678116fe3d4d4b9a1a184ab53ba36b86ad0fa66340b1ab41ad955f91610c2e575b508160011b915f199060031b1c19161790565b6002555b610c2960405192839283612059565b0390a1005b90508301355f610c03565b60025f52601f1982167f405787fa12a823e0f2b7631cc41b3ba8828b3321ca811111fa75cd3aa3bb5ace905f5b818110610cc1575093837f6741b2fc379fad678116fe3d4d4b9a1a184ab53ba36b86ad0fa66340b1ab41ad9510610ca8575b5050600182811b01600255610c1a565b8201355f19600385901b60f8161c191690555f80610c98565b83860135835560209586019560019093019201610c66565b6112a2565b3461024b575f36600319011261024b577fa3f0ad74e5423aebfd80d3ef4346578335a9a72aeaee59ff6cb3582b35133d50546040516001600160a01b039091168152602090f35b3461024b575f36600319011261024b576020604051308152f35b3461024b57602036600319011261024b5760206001600160a01b03610d656004356122c3565b16604051908152f35b3461024b57602036600319011261024b57610d8761049f565b6001600160a01b03811615610db3576001600160401b03610da9602092611d00565b5416604051908152f35b6323d3ad8160e21b5f5260045ffd5b3461024b575f36600319011261024b57610dda6127cb565b5f5160206129645f395f51905f5280546001600160a01b031981169091555f906001600160a01b03167f8be0079c531659141344cd1fd0a4f28419497f9722a3daafe3b4186f6b6457e08280a3005b3461024b57602036600319011261024b576004355f526001602052602060405f2054610e56811515611f2c565b610b19610afc82612220565b3461024b575f36600319011261024b575f5160206129645f395f51905f52546040516001600160a01b039091168152602090f35b3461024b575f36600319011261024b576040515f5f5160206129845f395f51905f5254610ec2816115a8565b80845290600181169081156104385750600114610ee9576102ab836103c2818503826112b6565b5f5160206129845f395f51905f525f9081527f617167b76dcc8247761fd21f427ad8ec3be6b3be203aed34e3aac08b4d31817c939250905b808210610f39575090915081016020016103c26103b2565b919260018160209254838588010152019101909291610f21565b3461024b57606036600319011261024b57610f6c61049f565b602435906044356001600160401b03811161024b57610f8f90369060040161045c565b6003549091906001600160a01b03163303610889577f992c36651c4df7327a1bba185e1011897742ab72b49adf46c5eb90ae8c4e16dd90845f526001602052610fdc60405f205415611eab565b5f5160206129445f395f51905f525493610ff5816124ee565b845f525f6020528560405f2055855f5260016020528460405f20556110306040519283926020845260018060a01b0316956020840191612039565b0390a4005b3461024b57604036600319011261024b5761104e61049f565b6024359081151580920361024b576110698161076633611d38565b60ff1981541660ff841617905560405191825260018060a01b0316907f17307eab39ab6107e8899845ad3d59bd9653f200f220920489ca2b5937696c3160203392a3005b3461024b575f36600319011261024b57604051630505448b60e01b8152602090f35b3461024b57604036600319011261024b576004356001600160401b03811161024b576110ff90369060040161045c565b6024356001600160401b03811161024b5761111e90369060040161045c565b6003549193916001600160a01b03163303610889576001600160401b038311610cd9576111618361115c5f5160206129c45f395f51905f52546115a8565b611880565b5f93601f84116001146111e45790610c29916111b385807f0c6d040b41f1b32f1be462599d2eb2241c7d29dce2d69dbcef94c98ad63ba7d9985f916111d957508160011b915f199060031b1c19161790565b5f5160206129c45f395f51905f52555b6111cd8282611f42565b6040519485948561206a565b90508601355f610c03565b5f5160206129c45f395f51905f525f52601f1984167f933ecf8acb7824b680a8d16f3ff3db8864228d986aa4c2ebab1eeb2703b4beb3905f5b81811061128a5750907f0c6d040b41f1b32f1be462599d2eb2241c7d29dce2d69dbcef94c98ad63ba7d99686610c2995949310611271575b5050600185811b015f5160206129c45f395f51905f52556111c3565b8501355f19600388901b60f8161c191690555f80611255565b8588013583556020978801976001909301920161121d565b634e487b7160e01b5f52604160045260245ffd5b90601f801991011681019081106001600160401b03821117610cd957604052565b6001600160401b038111610cd957601f01601f191660200190565b9291926112fe826112d7565b9161130c60405193846112b6565b82948184528183011161024b578281602093845f960137010152565b608036600319011261024b5761133c61049f565b6113446104b5565b90604435606435926001600160401b03841161024b573660238501121561024b5761137c6105989436906024816004013591016112f2565b92612091565b3461024b57606036600319011261024b5761139b61049f565b6024356001600160401b03811161024b576113ba9036906004016109b3565b91906044356001600160401b03811161024b576113db90369060040161045c565b600354909291906001600160a01b0316330361088957610a5b61140392610598963691611ec1565b916126d8565b3461024b57602036600319011261024b5760043561142681612220565b156114cb576114336115e0565b8051909190156114b05760405160a08101604052600a60808201925f8452925b5f19019260308282060184530491821561146f57600a90611453565b61149c9250926114a26103c29260806102ab96601f198101920301815260405194859360208501906120d2565b906120d2565b03601f1981018352826112b6565b50506102ab6040516114c36020826112b6565b5f81526103c2565b630a14c4b560e41b5f5260045ffd5b3461024b57602036600319011261024b576004356001600160401b03811161024b5761150a9036906004016109b3565b6003546001600160a01b03163303610889576105989161152b913691611ec1565b6040519061153a6020836112b6565b5f8252612690565b3461024b57604036600319011261024b57602060ff61157361156261049f565b61076661156d6104b5565b91611d38565b54166040519015158152f35b3461024b57602036600319011261024b5761059861159b61049f565b6115a36127cb565b6120fd565b90600182811c921680156115d6575b60208310146115c257565b634e487b7160e01b5f52602260045260245ffd5b91607f16916115b7565b604051905f82600254916115f3836115a8565b80835292600181169081156116785750600114611619575b611617925003836112b6565b565b5060025f90815290917f405787fa12a823e0f2b7631cc41b3ba8828b3321ca811111fa75cd3aa3bb5ace5b81831061165c5750509060206116179282010161160b565b6020919350806001915483858901015201910190918492611644565b6020925061161794915060ff191682840152151560051b82010161160b565b929093915f516020612a045f395f51905f5254946001600160401b036116d36116c660ff8960401c1615151590565b976001600160401b031690565b16801590816117ed575b60011490816117e3575b1590816117da575b506117cb57611732948661172960016001600160401b03195f516020612a045f395f51905f525416175f516020612a045f395f51905f5255565b61179157611b21565b61173857565b61176260ff60401b195f516020612a045f395f51905f5254165f516020612a045f395f51905f5255565b604051600181527fc7f505b2f371ae2175ee4913f4499e1f2633a7b5936321eed1cdaeb6115181d290602090a1565b6117c66801000000000000000060ff60401b195f516020612a045f395f51905f525416175f516020612a045f395f51905f5255565b611b21565b63f92ee8a960e01b5f5260045ffd5b9050155f6116ef565b303b1591506116e7565b8791506116dd565b604051906118046040836112b6565b601f82527f68747470733a2f2f76322e656d626c656d7661756c742e696f2f6d6574612f006020830152565b601f811161183c575050565b60025f5260205f20906020601f840160051c83019310611876575b601f0160051c01905b81811061186b575050565b5f8155600101611860565b9091508190611857565b601f811161188c575050565b5f5160206129c45f395f51905f525f5260205f20906020601f840160051c830193106118d2575b601f0160051c01905b8181106118c7575050565b5f81556001016118bc565b90915081906118b3565b601f82116118e957505050565b5f5260205f20906020601f840160051c83019310611921575b601f0160051c01905b818110611916575050565b5f815560010161190b565b9091508190611902565b9081516001600160401b038111610cd95761196a816119575f5160206129845f395f51905f52546115a8565b5f5160206129845f395f51905f526118dc565b602092601f82116001146119b65761199a929382915f926119ab575b50508160011b915f199060031b1c19161790565b5f5160206129845f395f51905f5255565b015190505f80611986565b5f5160206129845f395f51905f525f52601f198216937f617167b76dcc8247761fd21f427ad8ec3be6b3be203aed34e3aac08b4d31817c915f5b868110611a325750836001959610611a1a575b505050811b015f5160206129845f395f51905f5255565b01515f1960f88460031b161c191690555f8080611a03565b919260206001819286850151815501940192016119f0565b9081516001600160401b038111610cd957611a7181611a6a6002546115a8565b60026118dc565b602092601f8211600114611aa557611aa0929382915f926119ab5750508160011b915f199060031b1c19161790565b600255565b60025f52601f198216937f405787fa12a823e0f2b7631cc41b3ba8828b3321ca811111fa75cd3aa3bb5ace915f5b868110611b095750836001959610611af1575b505050811b01600255565b01515f1960f88460031b161c191690555f8080611ae6565b91926020600181928685015181550194019201611ad3565b611b3590611b3d93929695949636916112f2565b9436916112f2565b611b6360ff5f516020612a245f395f51905f525460081c16611b5e8161216e565b61216e565b83516001600160401b038111610cd957611b8e8161115c5f5160206129c45f395f51905f52546115a8565b6020601f8211600114611c315781611bd89392611bc49261161797985f926119ab5750508160011b915f199060031b1c19161790565b5f5160206129c45f395f51905f525561192b565b611bee60015f5160206129445f395f51905f5255565b611bf66121d7565b611bff336121f8565b611c0f611c0a6117f5565b611a4a565b60018060a01b03166bffffffffffffffffffffffff60a01b6003541617600355565b5f5160206129c45f395f51905f525f52601f198216957f933ecf8acb7824b680a8d16f3ff3db8864228d986aa4c2ebab1eeb2703b4beb3965f5b818110611cbb5750966001928492611bd89695611617999a10611ca3575b505050811b015f5160206129c45f395f51905f525561192b565b01515f1960f88460031b161c191690555f8080611c89565b83830151895560019098019760209384019301611c6b565b5f527f2569078dfb4b0305704d3008e7403993ae9601b85f7ae5e742de3de8f8011c4460205260405f2090565b6001600160a01b03165f9081527f2569078dfb4b0305704d3008e7403993ae9601b85f7ae5e742de3de8f8011c456020526040902090565b6001600160a01b03165f9081527f2569078dfb4b0305704d3008e7403993ae9601b85f7ae5e742de3de8f8011c476020526040902090565b9190611d7b826122c3565b6001600160a01b03938416938116849003611ea6575f8381525f5160206129a45f395f51905f52602052604090208054611dc46001600160a01b03871633908114908314171590565b611e8e575b611e85575b50611dd884611d00565b80545f19019055611de882611d00565b805460010190556001600160a01b0382164260a01b17600160e11b17611e0d84611cd3565b55600160e11b811615611e45575b506001600160a01b03169182905f5160206129e45f395f51905f525f80a415611e4057565b612297565b60018301611e5281611cd3565b5415611e5f575b50611e1b565b5f5160206129445f395f51905f52548114611e5957611e7d90611cd3565b555f80611e59565b5f90555f611dce565b611e9b61055b33886120e9565b15611dc9575b612288565b61227a565b15611eb257565b6314d23d4b60e31b5f5260045ffd5b929190926001600160401b038411610cd9578360051b906020604051611ee9828501826112b6565b809681520191810192831161024b57905b828210611f0657505050565b8135815260209182019101611efa565b15611f1d57565b63677510db60e11b5f5260045ffd5b15611f3357565b63086ad35960e01b5f5260045ffd5b91906001600160401b038111610cd957611f6d816119575f5160206129845f395f51905f52546115a8565b5f601f8211600114611fa557819061199a93945f92611f9a5750508160011b915f199060031b1c19161790565b013590505f80611986565b5f5160206129845f395f51905f525f52601f198216937f617167b76dcc8247761fd21f427ad8ec3be6b3be203aed34e3aac08b4d31817c915f5b868110612021575083600195961061200857505050811b015f5160206129845f395f51905f5255565b01355f19600384901b60f8161c191690555f8080611a03565b90926020600181928686013581550194019101611fdf565b908060209392818452848401375f828201840152601f01601f1916010190565b91602061036b938181520191612039565b92906120839061036b9593604086526040860191612039565b926020818503910152612039565b92919061209f828286611d70565b803b6120ac575b50505050565b6120b593612873565b156120c3575f8080806120a6565b6368d2bf6b60e11b5f5260045ffd5b906120e560209282815194859201610314565b0190565b60ff916107666120f892611d38565b541690565b6001600160a01b0316801561215b575f5160206129645f395f51905f5280546001600160a01b0319811683179091556001600160a01b03167f8be0079c531659141344cd1fd0a4f28419497f9722a3daafe3b4186f6b6457e05f80a3565b631e4fbdf760e01b5f525f60045260245ffd5b1561217557565b60405162461bcd60e51b815260206004820152603460248201527f455243373231415f5f496e697469616c697a61626c653a20636f6e7472616374604482015273206973206e6f7420696e697469616c697a696e6760601b6064820152608490fd5b61161760ff5f516020612a245f395f51905f525460081c16611b5e8161216e565b61161790612204612918565b6115a3612918565b634e487b7160e01b5f52601160045260245ffd5b905f91806001111561222f5750565b5f5160206129445f395f51905f525481106122475750565b9091505b61225481611cd3565b548061226e57508015612269575f190161224b565b61220c565b600160e01b1615919050565b62a1148160e81b5f5260045ffd5b632ce44b5f60e11b5f5260045ffd5b633a954ecd60e21b5f5260045ffd5b636f96cda160e11b5f5260045ffd5b622e076360e81b5f5260045ffd5b806001116122a6576122d481611cd3565b549081156122eb5750600160e01b81166122a65790565b90505f5160206129445f395f51905f525481101561232e575b5f190161231081611cd3565b549081156123275750600160e01b81166122a65790565b9050612304565b6122a6565b805f525f60205260405f205491825f5260016020525f6040812055815f525f6020525f6040812055612364826122c3565b5f8381525f5160206129a45f395f51905f52602052604090208054909184916001600160a01b03821691903380821490841417156124d4575b935f93946124cb575b506123b082611d00565b80546fffffffffffffffffffffffffffffffff0190556001600160a01b0382164260a01b17600360e01b176123e485611cd3565b55600160e11b81161561248b575b505f5160206129e45f395f51905f528280a46124566124327f2569078dfb4b0305704d3008e7403993ae9601b85f7ae5e742de3de8f8011c415460010190565b7f2569078dfb4b0305704d3008e7403993ae9601b85f7ae5e742de3de8f8011c4155565b7f526f93f8d03738358bd3b67e97cb0e0f58e3bbc91176a8cd93b095d9a90f26b06040518061248633948261035a565b0390a4565b6001840161249881611cd3565b54156124a5575b506123f2565b5f5160206129445f395f51905f5254811461249f576124c390611cd3565b555f8061249f565b8390555f6123a6565b92506124e361055b33846120e9565b611ea157859261239d565b5f5160206129445f395f51905f5254906001600160a01b0381164260a01b17600160e11b1761251c83611cd3565b5561252681611d00565b8054680100000000000000010190556001600160a01b03169081156122b55760018101909260015b1561256e575b5f84845f5f5160206129e45f395f51905f528180a461254e565b926001019281840361255457925061161791505f5160206129445f395f51905f5255565b5f5160206129445f395f51905f5254908215612643576001600160a01b0381164260a01b6001851460e11b17176125c883611cd3565b556125d281611d00565b80546801000000000000000185020190556001600160a01b031691821561263e578101909260015b1561261a575b5f84845f5f5160206129e45f395f51905f528180a46125fa565b926001019281840361260057925061161791505f5160206129445f395f51905f5255565b6122b5565b63b562e8dd60e01b5f5260045ffd5b1561265957565b63a600c81d60e01b5f5260045ffd5b805182101561267c5760209160051b010190565b634e487b7160e01b5f52603260045260245ffd5b9081519161269f831515612652565b5f5b8381106126ae5750505050565b806126c5846126bf60019486612668565b51612333565b016126a1565b9190820180921161226957565b908051926126e7841515612652565b5f5b84811061279c57505f5160206129445f395f51905f525461270a8585612592565b5f5b85811061271b57505050505050565b80612728600192846126cb565b6127328287612668565b519081612746825f525f60205260405f2090565b558061275a835f52600160205260405f2090565b556040517f992c36651c4df7327a1bba185e1011897742ab72b49adf46c5eb90ae8c4e16dd858060a01b038a1691806127938a8261035a565b0390a40161270c565b806127c56127be6127af60019487612668565b515f52600160205260405f2090565b5415611eab565b016126e9565b5f5160206129645f395f51905f52546001600160a01b031633036127eb57565b63118cdaa760e01b5f523360045260245ffd5b9081602091031261024b575161036b81610239565b6001600160a01b03918216815291166020820152604081019190915260806060820181905261036b92910190610335565b3d1561286e573d90612855826112d7565b9161286360405193846112b6565b82523d5f602084013e565b606090565b906020925f61289b959360405196879586948593630a85bd0160e11b85523360048601612813565b03926001600160a01b03165af15f91816128e7575b506128d1576128bd612844565b8051156128cc57805190602001fd5b6120c3565b6001600160e01b031916630a85bd0160e11b1490565b61290a91925060203d602011612911575b61290281836112b6565b8101906127fe565b905f6128b0565b503d6128f8565b60ff5f516020612a045f395f51905f525460401c161561293457565b631afcd79f60e31b5f5260045ffdfe2569078dfb4b0305704d3008e7403993ae9601b85f7ae5e742de3de8f8011c409016d09d72d40fdae2fd8ceac6b6234c7706214fd39c1cd1e609a0528c1993002569078dfb4b0305704d3008e7403993ae9601b85f7ae5e742de3de8f8011c432569078dfb4b0305704d3008e7403993ae9601b85f7ae5e742de3de8f8011c462569078dfb4b0305704d3008e7403993ae9601b85f7ae5e742de3de8f8011c42ddf252ad1be2c89b69c2b068fc378daa952ba7f163c4a11628f55a4df523b3eff0c57e16840df040f15088dc2f81fe391c3923bec73e23a9662efc9c229c6a00ee151c8401928dc223602bb187aff91b9a56c7cae5476ef1b3287b085a16c85fa26469706673582212201d8c81f3a3289730d3cb3620c5866dcf192e87e64ba6a71b170fbf08f67f6c2164736f6c634300081c0033f0c57e16840df040f15088dc2f81fe391c3923bec73e23a9662efc9c229c6a00",
  "linkReferences": {},
  "deployedLinkReferences": {}
}