{
  "_format": "hh-sol-artifact-1",
  "contractName": "EmblemVaultUnvaultFacet",
  "sourceName": "src/facets/EmblemVaultUnvaultFacet.sol",
  "abi": [
    {
      "inputs": [],
      "name": "AlreadyUnvaulted",
      "type": "error"
    },
    {
      "inputs": [
        {
          "internalType": "address",
          "name": "collection",
          "type": "address"
        },
        {
          "internalType": "uint256",
          "name": "tokenId",
          "type": "uint256"
        }
      ],
      "name": "AlreadyUnvaulted",
      "type": "error"
    },
    {
      "inputs": [
        {
          "internalType": "uint256",
          "name": "size",
          "type": "uint256"
        },
        {
          "internalType": "uint256",
          "name": "limit",
          "type": "uint256"
        }
      ],
      "name": "BatchSizeExceeded",
      "type": "error"
    },
    {
      "inputs": [
        {
          "internalType": "address",
          "name": "collection",
          "type": "address"
        },
        {
          "internalType": "uint256",
          "name": "tokenId",
          "type": "uint256"
        }
      ],
      "name": "BurnFailed",
      "type": "error"
    },
    {
      "inputs": [],
      "name": "FactoryNotSet",
      "type": "error"
    },
    {
      "inputs": [
        {
          "internalType": "uint256",
          "name": "provided",
          "type": "uint256"
        },
        {
          "internalType": "uint256",
          "name": "expected",
          "type": "uint256"
        }
      ],
      "name": "IncorrectPayment",
      "type": "error"
    },
    {
      "inputs": [
        {
          "internalType": "address",
          "name": "contractAddress",
          "type": "address"
        },
        {
          "internalType": "string",
          "name": "interfaceName",
          "type": "string"
        }
      ],
      "name": "InterfaceNotSupported",
      "type": "error"
    },
    {
      "inputs": [
        {
          "internalType": "uint256",
          "name": "amount",
          "type": "uint256"
        }
      ],
      "name": "InvalidAmount",
      "type": "error"
    },
    {
      "inputs": [
        {
          "internalType": "address",
          "name": "collection",
          "type": "address"
        }
      ],
      "name": "InvalidCollection",
      "type": "error"
    },
    {
      "inputs": [],
      "name": "InvalidSignature",
      "type": "error"
    },
    {
      "inputs": [
        {
          "internalType": "uint256",
          "name": "tokenId",
          "type": "uint256"
        }
      ],
      "name": "InvalidTokenId",
      "type": "error"
    },
    {
      "inputs": [
        {
          "internalType": "uint256",
          "name": "length1",
          "type": "uint256"
        },
        {
          "internalType": "uint256",
          "name": "length2",
          "type": "uint256"
        }
      ],
      "name": "LengthMismatch",
      "type": "error"
    },
    {
      "inputs": [],
      "name": "NonceAlreadyUsed",
      "type": "error"
    },
    {
      "inputs": [
        {
          "internalType": "address",
          "name": "collection",
          "type": "address"
        },
        {
          "internalType": "uint256",
          "name": "tokenId",
          "type": "uint256"
        },
        {
          "internalType": "address",
          "name": "caller",
          "type": "address"
        }
      ],
      "name": "NotVaultOwner",
      "type": "error"
    },
    {
      "inputs": [
        {
          "internalType": "address",
          "name": "caller",
          "type": "address"
        }
      ],
      "name": "NotWitness",
      "type": "error"
    },
    {
      "inputs": [],
      "name": "ReentrantCall",
      "type": "error"
    },
    {
      "inputs": [],
      "name": "StaleSignature",
      "type": "error"
    },
    {
      "inputs": [],
      "name": "TransferFailed",
      "type": "error"
    },
    {
      "inputs": [
        {
          "internalType": "address",
          "name": "caller",
          "type": "address"
        }
      ],
      "name": "Unauthorized",
      "type": "error"
    },
    {
      "inputs": [],
      "name": "UnvaultingDisabled",
      "type": "error"
    },
    {
      "inputs": [
        {
          "internalType": "address",
          "name": "collection",
          "type": "address"
        },
        {
          "internalType": "uint256",
          "name": "tokenId",
          "type": "uint256"
        }
      ],
      "name": "VaultAlreadyLocked",
      "type": "error"
    },
    {
      "inputs": [],
      "name": "ZeroAddress",
      "type": "error"
    },
    {
      "anonymous": false,
      "inputs": [
        {
          "indexed": true,
          "internalType": "address",
          "name": "addr",
          "type": "address"
        },
        {
          "indexed": false,
          "internalType": "bool",
          "name": "isBurn",
          "type": "bool"
        }
      ],
      "name": "BurnAddressUpdated",
      "type": "event"
    },
    {
      "anonymous": false,
      "inputs": [
        {
          "indexed": true,
          "internalType": "address",
          "name": "nftAddress",
          "type": "address"
        },
        {
          "indexed": true,
          "internalType": "uint256",
          "name": "tokenId",
          "type": "uint256"
        },
        {
          "indexed": true,
          "internalType": "address",
          "name": "unvaulter",
          "type": "address"
        },
        {
          "indexed": false,
          "internalType": "uint256",
          "name": "serialNumber",
          "type": "uint256"
        },
        {
          "indexed": false,
          "internalType": "bytes",
          "name": "data",
          "type": "bytes"
        }
      ],
      "name": "TokenUnvaulted",
      "type": "event"
    },
    {
      "anonymous": false,
      "inputs": [
        {
          "indexed": true,
          "internalType": "address",
          "name": "nftAddress",
          "type": "address"
        },
        {
          "indexed": true,
          "internalType": "uint256",
          "name": "tokenId",
          "type": "uint256"
        },
        {
          "indexed": true,
          "internalType": "address",
          "name": "unvaulter",
          "type": "address"
        },
        {
          "indexed": false,
          "internalType": "uint256",
          "name": "price",
          "type": "uint256"
        },
        {
          "indexed": false,
          "internalType": "uint256",
          "name": "serialNumber",
          "type": "uint256"
        },
        {
          "indexed": false,
          "internalType": "bytes",
          "name": "data",
          "type": "bytes"
        }
      ],
      "name": "TokenUnvaultedWithPrice",
      "type": "event"
    },
    {
      "anonymous": false,
      "inputs": [
        {
          "indexed": false,
          "internalType": "bool",
          "name": "enabled",
          "type": "bool"
        }
      ],
      "name": "UnvaultingEnabled",
      "type": "event"
    },
    {
      "inputs": [],
      "name": "MAX_BATCH_SIZE",
      "outputs": [
        {
          "internalType": "uint256",
          "name": "",
          "type": "uint256"
        }
      ],
      "stateMutability": "view",
      "type": "function"
    },
    {
      "inputs": [
        {
          "components": [
            {
              "internalType": "address[]",
              "name": "nftAddresses",
              "type": "address[]"
            },
            {
              "internalType": "uint256[]",
              "name": "tokenIds",
              "type": "uint256[]"
            },
            {
              "internalType": "uint256[]",
              "name": "nonces",
              "type": "uint256[]"
            },
            {
              "internalType": "address[]",
              "name": "payments",
              "type": "address[]"
            },
            {
              "internalType": "uint256[]",
              "name": "prices",
              "type": "uint256[]"
            },
            {
              "internalType": "bytes[]",
              "name": "signatures",
              "type": "bytes[]"
            },
            {
              "internalType": "uint256",
              "name": "timestamp",
              "type": "uint256"
            }
          ],
          "internalType": "struct EmblemVaultUnvaultFacet.BatchUnvaultParams",
          "name": "params",
          "type": "tuple"
        }
      ],
      "name": "batchUnvaultWithSignedPrice",
      "outputs": [],
      "stateMutability": "payable",
      "type": "function"
    },
    {
      "inputs": [
        {
          "internalType": "address",
          "name": "nft",
          "type": "address"
        }
      ],
      "name": "getCollectionUnvaultCount",
      "outputs": [
        {
          "internalType": "uint256",
          "name": "",
          "type": "uint256"
        }
      ],
      "stateMutability": "view",
      "type": "function"
    },
    {
      "inputs": [
        {
          "internalType": "address",
          "name": "nft",
          "type": "address"
        },
        {
          "internalType": "uint256",
          "name": "id",
          "type": "uint256"
        }
      ],
      "name": "getTokenUnvaulter",
      "outputs": [
        {
          "internalType": "address",
          "name": "",
          "type": "address"
        }
      ],
      "stateMutability": "view",
      "type": "function"
    },
    {
      "inputs": [],
      "name": "getUnvaultVersion",
      "outputs": [
        {
          "internalType": "string",
          "name": "",
          "type": "string"
        }
      ],
      "stateMutability": "pure",
      "type": "function"
    },
    {
      "inputs": [
        {
          "internalType": "address",
          "name": "nft",
          "type": "address"
        },
        {
          "internalType": "uint256",
          "name": "id",
          "type": "uint256"
        }
      ],
      "name": "isTokenUnvaulted",
      "outputs": [
        {
          "internalType": "bool",
          "name": "",
          "type": "bool"
        }
      ],
      "stateMutability": "view",
      "type": "function"
    },
    {
      "inputs": [
        {
          "internalType": "address",
          "name": "addr",
          "type": "address"
        },
        {
          "internalType": "bool",
          "name": "isBurn",
          "type": "bool"
        }
      ],
      "name": "setBurnAddress",
      "outputs": [],
      "stateMutability": "nonpayable",
      "type": "function"
    },
    {
      "inputs": [
        {
          "internalType": "bool",
          "name": "enabled",
          "type": "bool"
        }
      ],
      "name": "setUnvaultingEnabled",
      "outputs": [],
      "stateMutability": "nonpayable",
      "type": "function"
    },
    {
      "inputs": [
        {
          "internalType": "address",
          "name": "_nftAddress",
          "type": "address"
        },
        {
          "internalType": "uint256",
          "name": "tokenId",
          "type": "uint256"
        }
      ],
      "name": "unvault",
      "outputs": [],
      "stateMutability": "nonpayable",
      "type": "function"
    },
    {
      "inputs": [
        {
          "internalType": "address",
          "name": "_nftAddress",
          "type": "address"
        },
        {
          "internalType": "uint256",
          "name": "_tokenId",
          "type": "uint256"
        },
        {
          "internalType": "uint256",
          "name": "_nonce",
          "type": "uint256"
        },
        {
          "internalType": "address",
          "name": "_payment",
          "type": "address"
        },
        {
          "internalType": "uint256",
          "name": "_price",
          "type": "uint256"
        },
        {
          "internalType": "bytes",
          "name": "_signature",
          "type": "bytes"
        },
        {
          "internalType": "uint256",
          "name": "_timestamp",
          "type": "uint256"
        }
      ],
      "name": "unvaultWithSignedPrice",
      "outputs": [],
      "stateMutability": "payable",
      "type": "function"
    }
  ],
  "bytecode": "0x60808060405234601557611fdf908161001a8239f35b5f80fdfe60806040526004361015610011575f80fd5b5f3560e01c806307b475d8146100b45780631bfff628146100af578063237b119f146100aa578063374c7be3146100a55780634ad06ddf146100a057806360fadae91461009b57806394b67c6614610096578063be5465c014610091578063ce634cc81461008c5763cfdbf25414610087575f80fd5b610bc7565b610b92565b610b13565b610468565b6103e6565b610310565b6102ad565b61023c565b6101f1565b34610182576040366003190112610182576004356100d181610186565b6024356100dd81610197565b6100e56111ed565b6001600160a01b03821691821561017357816101687f583adbb9069eb97878500e0a7a18e051f8d84b8b76d43f1b430e0a1e08b7781a9361015760209460018060a01b03165f527feae6a9186ef8c9a9c621be57187141839c5405aaab5291e1ca9745c5e148d41d60205260405f2090565b9060ff801983541691151516179055565b6040519015158152a2005b63d92e233d60e01b5f5260045ffd5b5f80fd5b6001600160a01b0381160361018257565b8015150361018257565b5f91031261018257565b5f5b8381106101bc5750505f910152565b81810151838201526020016101ad565b906020916101e5815180928185528580860191016101ab565b601f01601f1916010190565b34610182575f36600319011261018257610238604051610212604082610c18565b60058152640302e312e360dc1b60208201526040519182916020835260208301906101cc565b0390f35b346101825760403660031901126101825760043561025981610186565b6001600160a01b03165f9081527feae6a9186ef8c9a9c621be57187141839c5405aaab5291e1ca9745c5e148d41b602052604090206024355f52602052602060018060a01b0360405f205416604051908152f35b346101825760203660031901126101825760206103076004356102cf81610186565b6001600160a01b03165f9081527feae6a9186ef8c9a9c621be57187141839c5405aaab5291e1ca9745c5e148d41c6020526040902090565b54604051908152f35b346101825760403660031901126101825760043561032d81610186565b6024357feae6a9186ef8c9a9c621be57187141839c5405aaab5291e1ca9745c5e148d419546001600160a01b03169161036583611233565b604051635fa15ebb60e01b81526001600160a01b038216600482015292602090849060249082905afa9283156103e1576103b0936103ab915f916103b2575b5082611252565b610c8d565b005b6103d4915060203d6020116103da575b6103cc8183610c18565b810190610c6a565b5f6103a4565b503d6103c2565b610c82565b34610182576020366003190112610182577f3f83285bf23a3638c3b6c33f454461f2deaef7c7b3ded7bcc1d465cd89bad26f602060043561042681610197565b61042e6111ed565b15155f516020611f8a5f395f51905f525462ff00008260101b169062ff00001916175f516020611f8a5f395f51905f5255604051908152a1005b60203660031901126101825760043567ffffffffffffffff811161018257806004019060e06003198236030112610182576104a161127b565b602481016104b96104b28285610d79565b90506117ce565b6104da6104c68285610d79565b90506104d28580610d79565b9190506117f0565b6104e48184610d79565b9390506104f960448401946104d28684610d79565b6105038282610d79565b94905061051860648501956104d28785610d79565b6105228383610d79565b95905061053760848601966104d28886610d79565b6105418484610d79565b905061055560a48701916104d28387610d79565b5f91825b6105638787610d79565b9050841015610ab95761060d61058b610586866105808a80610d79565b90610dc3565b610dd8565b7feae6a9186ef8c9a9c621be57187141839c5405aaab5291e1ca9745c5e148d419546020906105d0906105c4906001600160a01b031681565b6001600160a01b031690565b6105e1610586896105808d80610d79565b604051635fa15ebb60e01b81526001600160a01b03909116600482015293849190829081906024820190565b03915afa9081156103e157610629925f92610a99575b50611252565b61064061063a85610580888a610d79565b35611810565b610669610654610586866105808a80610d79565b610662866105808b8b610d79565b35906112b9565b156109cc57836106798780610d79565b6106839291610dc3565b61068c90610dd8565b8988858b89898c8180806106a08d85610d79565b6106aa9291610dc3565b6106b390610dd8565b986106be9084610d79565b6106c89291610dc3565b35966106d49083610d79565b6106de9291610dc3565b35926106e991610d79565b6106f39291610dc3565b35908a8d6106ff610de2565b9460c401359561070e91610d79565b6107189291610dfd565b469791610726913691610e3f565b953391610732996119bc565b610777905b6001600160a01b0381165f9081527feae6a9186ef8c9a9c621be57187141839c5405aaab5291e1ca9745c5e148d415602052604090205460ff1690611a92565b888661078d6105c4610586886105808886610d79565b61091557856105806107aa94936107a393610d79565b3590610ec1565b925b6107d56107c0610586836105808a80610d79565b6107ce836105808b8b610d79565b359061135d565b9091156108ce578783927f741c067356b33235645f3f2796771b049d6c57ff8bc55ca42a8ef1f9a9e6b9ea8b936108a98f976105806001996108a28f61058061089b610586876105808f8f9061085d84610580819a6108576108959561085085610580610849610586836105808e80610d79565b938b610d79565b3590611abb565b85610d79565b355f527feae6a9186ef8c9a9c621be57187141839c5405aaab5291e1ca9745c5e148d41660205260405f20600160ff19825416179055565b80610d79565b9b8b610d79565b3597610d79565b35926108c460405192839233988b8060a01b03169684610ed3565b0390a40192610559565b610912886108f1856105808d6108eb610586846105808880610d79565b94610d79565b63016f84a160e01b5f526001600160a01b0390911660045235602452604490565b5ffd5b610999916109356105c46105c46105868a6105808a6020989d9a9d610d79565b5f516020611f4a5f395f51905f525461095e908690610580906001600160a01b0316948d610d79565b6040516323b872dd60e01b81523360048201526001600160a01b039093166024840152356044830152909283919082905f9082906064820190565b03925af180156103e1576109ae575b506107ac565b6109c59060203d81116103da576103cc8183610c18565b505f6109a8565b836109d78780610d79565b6109e19291610dc3565b6109ea90610dd8565b8988858b89898c8180806109fe8d85610d79565b610a089291610dc3565b610a1190610dd8565b98610a1c9084610d79565b610a269291610dc3565b3596610a329083610d79565b610a3c9291610dc3565b3592610a4791610d79565b610a519291610dc3565b35908a8d610a5d610de2565b9460c4013595610a6c91610d79565b610a769291610dfd565b469791610a84913691610e3f565b953391610a9099611852565b61077790610737565b610ab291925060203d81116103da576103cc8183610c18565b905f610623565b80610ac7575b6103b06117aa565b5f808083610ad6829534611b04565b5f516020611f4a5f395f51905f52546001600160a01b03165af1610af8610eef565b5015610b045780610abf565b6312171d8360e31b5f5260045ffd5b60e036600319011261018257600435610b2b81610186565b6024359060443560643591610b3f83610186565b60843560a4359367ffffffffffffffff851161018257366023860112156101825784600401359367ffffffffffffffff8511610182573660248688010111610182576103b096602460c435970194610f1e565b34610182576040366003190112610182576020610bbd600435610bb481610186565b60243590611b24565b6040519015158152f35b34610182575f366003190112610182576020604051602d8152f35b634e487b7160e01b5f52604160045260245ffd5b610140810190811067ffffffffffffffff821117610c1357604052565b610be2565b90601f8019910116810190811067ffffffffffffffff821117610c1357604052565b67ffffffffffffffff8111610c1357601f01601f191660200190565b60405190610c65602083610c18565b5f8252565b908160209103126101825751610c7f81610197565b90565b6040513d5f823e3d90fd5b90610c9661127b565b60ff5f516020611f8a5f395f51905f525460101c1615610d6a57610cba81836112b9565b610d4857610cc8818361135d565b909115610d2757610d0b7f1193a4a92369bd1c059a695b7d203adf0a7d4484c2f61d7893d8ca0596d441e3916040519384526040602085015260408401906101cc565b33946001600160a01b0316929081900390a4610d256117aa565b565b63016f84a160e01b5f526001600160a01b038416600452602483905260445ffd5b63f951587960e01b5f9081526001600160a01b03909216600452602452604490fd5b639872288f60e01b5f5260045ffd5b903590601e1981360301821215610182570180359067ffffffffffffffff821161018257602001918160051b3603831361018257565b634e487b7160e01b5f52603260045260245ffd5b9190811015610dd35760051b0190565b610daf565b35610c7f81610186565b60405190610df1602083610c18565b5f808352366020840137565b9190811015610dd35760051b81013590601e198136030182121561018257019081359167ffffffffffffffff8311610182576020018236038113610182579190565b929192610e4b82610c3a565b91610e596040519384610c18565b829481845281830111610182578281602093845f960137010152565b6001600160a01b03165f9081527feae6a9186ef8c9a9c621be57187141839c5405aaab5291e1ca9745c5e148d41a6020526040902090565b634e487b7160e01b5f52601160045260245ffd5b91908201809211610ece57565b610ead565b610c7f93926060928252602082015281604082015201906101cc565b3d15610f19573d90610f0082610c3a565b91610f0e6040519384610c18565b82523d5f602084013e565b606090565b9695929193949095610f8c60208960018060a01b037feae6a9186ef8c9a9c621be57187141839c5405aaab5291e1ca9745c5e148d4195416610f5f81611233565b604051635fa15ebb60e01b81526001600160a01b0390921660048301529092839190829081906024820190565b03915afa80156103e157610fa8915f916111ce575b5089611252565b610fb061127b565b5f516020611f8a5f395f51905f5254610fcd9060101c60ff161590565b610d6a57859361101592610fe087611810565b610fea898b6112b9565b156111ad5761073792611008610ffe610de2565b9246943691610e3f565b91888b8d8a8a33926119bc565b6001600160a01b031680611124575061102e9034611b04565b5f808080856110505f516020611f4a5f395f51905f525460018060a01b031690565b5af161105a610eef565b5015610b04575b61106b838561135d565b9290911561110357906110db7f741c067356b33235645f3f2796771b049d6c57ff8bc55ca42a8ef1f9a9e6b9ea93926110a48789611abb565b5f527feae6a9186ef8c9a9c621be57187141839c5405aaab5291e1ca9745c5e148d41660205260405f20600160ff19825416179055565b60405133966001600160a01b031694909283926110f89284610ed3565b0390a4610d256117aa565b63016f84a160e01b5f526001600160a01b038616600452602485905260445ffd5b5f516020611f4a5f395f51905f52546040516323b872dd60e01b81523360048201526001600160a01b0390911660248201526044810192909252602090829060649082905f905af19081156103e1575f9161118e575b50611061576312171d8360e31b5f5260045ffd5b6111a7915060203d6020116103da576103cc8183610c18565b5f61117a565b6111c9926111bc610ffe610de2565b91888b8d8a8a3392611852565b610737565b6111e7915060203d6020116103da576103cc8183610c18565b5f610fa1565b7fc8fcad8db84d3cc18b4c41d551ea0ee66dd599cde068d998e57d5e09332c131c546001600160a01b0316330361122057565b63472511eb60e11b5f523360045260245ffd5b6001600160a01b03161561124357565b6329f7dfeb60e21b5f5260045ffd5b901561125b5750565b63bf29a5e560e01b5f9081526001600160a01b0391909116600452602490fd5b5f516020611f6a5f395f51905f525460ff81166112aa5760ff19166001175f516020611f6a5f395f51905f5255565b6306fda65d60e31b5f5260045ffd5b6001600160a01b03165f9081527feae6a9186ef8c9a9c621be57187141839c5405aaab5291e1ca9745c5e148d414602052604090205b905f5260205260ff60405f20541690565b90816020910312610182575190565b908160209103126101825751610c7f81610186565b60405190611333604083610c18565b600d82526c12525cd4d95c9a585b1a5e9959609a1b6020830152565b5f19810191908211610ece57565b919061136883611b2d565b1561161f5761138861137984611cb3565b611381611324565b9085611cf4565b604051627eeac760e11b8152336004820152602481018290526001600160a01b0384169390602081604481885afa9081156103e1575f91611600575b5080156115ec5760206113d96114079261134f565b60405163cba8070360e01b815233600482015260248101869052604481019190915291829081906064820190565b0381885afa9081156103e1575f916115cd575b50604051639a7f1f7d60e01b81526004810182905290948591602081602481855afa80156103e15785915f9161159e575b500361158a5760405163bbe215f360e01b815260048101839052602081602481855afa9081156103e1575f9161155b575b50336001600160a01b0390911603611536576114988284611b24565b61151557803b1561018257604051637a94c56560e11b81523360048201526024810194909452600160448501525f908490606490829084905af19283156103e1576114ea936114fb575b503391611bd6565b6114f2610c56565b905b6001929190565b806115095f61150f93610c18565b806101a1565b5f6114e2565b50630db9222160e01b5f526001600160a01b0390911660045260245260445ffd5b634725679360e01b5f526001600160a01b03831660045260248490523360445260645ffd5b61157d915060203d602011611583575b6115758183610c18565b81019061130f565b5f61147c565b503d61156b565b63ed15e6cf60e01b5f52600484905260245ffd5b6115c0915060203d6020116115c6575b6115b88183610c18565b810190611300565b5f61144b565b503d6115ae565b6115e6915060203d6020116115c6576115b88183610c18565b5f61141a565b633728b83d60e01b5f90815260045260245ffd5b611619915060203d6020116115c6576115b88183610c18565b5f6113c4565b61162a839293611b87565b1561179c57604051638d01616d60e01b81526004810191909152906001600160a01b03811690602083602481855afa9283156103e1575f9361177b575b506116728382611b24565b61175b576040516331a9108f60e11b815260048101849052602081602481865afa9081156103e1575f9161173c575b50336001600160a01b039091160361171857813b1561018257604051630852cd8d60e31b815260048101849052915f908390602490829084905af19182156103e1576116f592611704575b50823391611bd6565b6116fd610c56565b90916114f4565b806115095f61171293610c18565b5f6116ec565b634725679360e01b5f526001600160a01b031660045260248290523360445260645ffd5b611755915060203d602011611583576115758183610c18565b5f6116a1565b630db9222160e01b5f526001600160a01b0316600452602482905260445ffd5b61179591935060203d6020116115c6576115b88183610c18565b915f611667565b50505f905f90610c7f610c56565b60ff195f516020611f6a5f395f51905f5254165f516020611f6a5f395f51905f5255565b602d81116117d95750565b63f80a484560e01b5f52600452602d60245260445ffd5b8181036117fb575050565b6355c5b3e360e11b5f5260045260245260445ffd5b5f527feae6a9186ef8c9a9c621be57187141839c5405aaab5291e1ca9745c5e148d41660205260ff60405f20541661184457565b623f613760e71b5f5260045ffd5b949396919798929061012c8301808411610ece5742116119ad576040519561187987610bf6565b6001600160a01b0390811680885291811660208801819052604088018b90529216606087018190526080870189905260a08701869052600160c088015260e087018890526101008701938452610120909601938452906001600160a01b0316946001600160a01b031695604051806020810192836118f691611e9f565b03601f19810182526119089082610c18565b5190209151925193604051978897602089019a61198e986001958d98969492909161011c9a989694926001600160601b03199060601b168a526001600160601b03199060601b1660148a015260288901526001600160601b03199060601b166048880152605c870152607c860152609c85015260bc84015260dc83015260fc8201520190565b03601f19810182526119a09082610c18565b51902090610c7f91611da1565b63480cfdff60e01b5f5260045ffd5b949396919798929061012c8301808411610ece5742116119ad57604051956119e387610bf6565b6001600160a01b0390811680885291811660208801819052604088018b90529216606087018190526080870189905260a08701869052600160c088015260e087018890526101008701938452610120909601938452906001600160a01b0316946001600160a01b03169560405180602081019283611a6091611e9f565b03601f1981018252611a729082610c18565b5190209151925193604051978897602089019a61198e986001958d611ecc565b9015611a9b5750565b633bff3ba960e21b5f9081526001600160a01b0391909116600452602490fd5b6001600160a01b03165f9081527feae6a9186ef8c9a9c621be57187141839c5405aaab5291e1ca9745c5e148d41460205260409020905f5260205260405f2060ff198154169055565b818103611b0f575050565b630d35e92160e01b5f5260045260245260445ffd5b6112ef90610e75565b6040516301ffc9a760e01b8152636cdb3d1360e11b600482015290602090829060249082906001600160a01b03165afa9081156103e1575f91611b6e575090565b610c7f915060203d6020116103da576103cc8183610c18565b6040516301ffc9a760e01b8152637a54af9360e11b600482015290602090829060249082906001600160a01b03165afa9081156103e1575f91611b6e575090565b5f198114610ece5760010190565b9060ff5f516020611f8a5f395f51905f525460101c1615610d6a57611bfa82610e75565b815f5260205260ff60405f205416611ca457611c9692611c776102cf92611c2085610e75565b5f82815260209182526040808220805460ff191660011790556001600160a01b03881682527feae6a9186ef8c9a9c621be57187141839c5405aaab5291e1ca9745c5e148d41b90925220905f5260205260405f2090565b80546001600160a01b0319166001600160a01b03909216919091179055565b611ca08154611bc8565b9055565b637fa8973d60e11b5f5260045ffd5b6040516301ffc9a760e01b8152631760ddd560e21b600482015290602090829060249082906001600160a01b03165afa9081156103e1575f91611b6e575090565b9015611cfe575050565b604080516311618d2360e21b81526001600160a01b0390921660048301526024820152908190611d329060448301906101cc565b0390fd5b60ff601b9116019060ff8211610ece57565b60405190611d57604083610c18565b601c82527f19457468657265756d205369676e6564204d6573736167653a0a3332000000006020830152565b6020929190611d998492828151948592016101ab565b019081520190565b906041815103611e74576020810151606060408301519201515f1a90601b8210611e8f575b60ff8216601b8114159081611e83575b50611e74577f7fffffffffffffffffffffffffffffff5d576e7357a4501ddfe92f46681b20a08311611e7457611e615f93602095611e29611e37611e18611d48565b926040519283918b83019586611d83565b03601f198101835282610c18565b51902092604051948594859094939260ff6060936080840197845216602083015260408201520152565b838052039060015afa156103e1575f5190565b638baa579f60e01b5f5260045ffd5b601c915014155f611dd6565b90611e9990611d36565b90611dc6565b80516020909101905f5b818110611eb65750505090565b8251845260209384019390920191600101611ea9565b98969492909161011d9a989694926001600160601b03199060601b168a526001600160601b03199060601b1660148a015260288901526001600160601b03199060601b166048880152605c870152607c860152609c85015260bc840152611f3b60dc84016001151560f81b9052565b60dd83015260fd820152019056feeae6a9186ef8c9a9c621be57187141839c5405aaab5291e1ca9745c5e148d418b1befa042b4d53fafbeae4758977ffb1efccc7a693085f849cbf75791515613deae6a9186ef8c9a9c621be57187141839c5405aaab5291e1ca9745c5e148d413a264697066735822122088a9b88649b4bdd7a90692fb865649f36c2b3a2b079284f212765a8be1228cd464736f6c634300081c0033",
  "linkReferences": {},
  "deployedLinkReferences": {}
}