{
  "src/beacon/SimpleVaultBeacon.sol": {
    "SimpleVaultBeacon": {
      "abi": [
        {
          "inputs": [
            {
              "internalType": "address",
              "name": "_implementation",
              "type": "address"
            }
          ],
          "stateMutability": "nonpayable",
          "type": "constructor"
        },
        {
          "inputs": [
            {
              "internalType": "address",
              "name": "caller",
              "type": "address"
            }
          ],
          "name": "Unauthorized",
          "type": "error"
        },
        {
          "inputs": [],
          "name": "ZeroAddress",
          "type": "error"
        },
        {
          "anonymous": false,
          "inputs": [
            {
              "indexed": true,
              "internalType": "address",
              "name": "oldImplementation",
              "type": "address"
            },
            {
              "indexed": true,
              "internalType": "address",
              "name": "newImplementation",
              "type": "address"
            }
          ],
          "name": "ImplementationUpgraded",
          "type": "event"
        },
        {
          "anonymous": false,
          "inputs": [
            {
              "indexed": true,
              "internalType": "address",
              "name": "previousOwner",
              "type": "address"
            },
            {
              "indexed": true,
              "internalType": "address",
              "name": "newOwner",
              "type": "address"
            }
          ],
          "name": "OwnershipTransferred",
          "type": "event"
        },
        {
          "inputs": [],
          "name": "implementation",
          "outputs": [
            {
              "internalType": "address",
              "name": "",
              "type": "address"
            }
          ],
          "stateMutability": "view",
          "type": "function"
        },
        {
          "inputs": [],
          "name": "owner",
          "outputs": [
            {
              "internalType": "address",
              "name": "",
              "type": "address"
            }
          ],
          "stateMutability": "view",
          "type": "function"
        },
        {
          "inputs": [
            {
              "internalType": "bytes4",
              "name": "interfaceId",
              "type": "bytes4"
            }
          ],
          "name": "supportsInterface",
          "outputs": [
            {
              "internalType": "bool",
              "name": "",
              "type": "bool"
            }
          ],
          "stateMutability": "pure",
          "type": "function"
        },
        {
          "inputs": [
            {
              "internalType": "address",
              "name": "newOwner",
              "type": "address"
            }
          ],
          "name": "transferOwnership",
          "outputs": [],
          "stateMutability": "nonpayable",
          "type": "function"
        },
        {
          "inputs": [
            {
              "internalType": "address",
              "name": "newImplementation",
              "type": "address"
            }
          ],
          "name": "upgrade",
          "outputs": [],
          "stateMutability": "nonpayable",
          "type": "function"
        }
      ],
      "devdoc": {
        "details": "Follows EIP-1967 beacon pattern but doesn't check for IERC165 support",
        "kind": "dev",
        "methods": {
          "constructor": {
            "params": {
              "_implementation": "Initial implementation address"
            }
          },
          "supportsInterface(bytes4)": {
            "params": {
              "interfaceId": "Interface identifier"
            },
            "returns": {
              "_0": "bool True if interface is supported"
            }
          },
          "transferOwnership(address)": {
            "params": {
              "newOwner": "Address of the new owner"
            }
          },
          "upgrade(address)": {
            "params": {
              "newImplementation": "Address of the new implementation"
            }
          }
        },
        "title": "SimpleVaultBeacon",
        "version": 1
      },
      "evm": {
        "bytecode": {
          "linkReferences": {},
          "object": "60803460b557601f61030c38819003918201601f19168301916001600160401b0383118484101760b95780849260209460405283398101031260b557516001600160a01b0381169081900360b557801560a65760018060a01b03195f5416175f553360018060a01b03196001541617600155604051335f7f8be0079c531659141344cd1fd0a4f28419497f9722a3daafe3b4186f6b6457e08180a361023e90816100ce8239f35b63d92e233d60e01b5f5260045ffd5b5f80fd5b634e487b7160e01b5f52604160045260245ffdfe6080806040526004361015610012575f80fd5b5f3560e01c90816301ffc9a7146101b3575080630900f010146101335780635c60da1b1461010c5780638da5cb5b146100e45763f2fde38b14610053575f80fd5b346100e05760203660031901126100e0576004356001600160a01b038116908181036100e057600154906001600160a01b038216338190036100cd5761009984926101e9565b7f8be0079c531659141344cd1fd0a4f28419497f9722a3daafe3b4186f6b6457e05f80a36001600160a01b03191617600155005b63472511eb60e11b5f523360045260245ffd5b5f80fd5b346100e0575f3660031901126100e0576001546040516001600160a01b039091168152602090f35b346100e0575f3660031901126100e0575f546040516001600160a01b039091168152602090f35b346100e05760203660031901126100e0576004356001600160a01b038116908181036100e0576001546001600160a01b031633036100cd57610174906101e9565b5f548160018060a01b0382167f1a5ca99a64512489fd9455e8da426740174107a69292fca0a8b80b08f6f678925f80a36001600160a01b031916175f55005b346100e05760203660031901126100e0576004359063ffffffff60e01b82168092036100e0576020916301ffc9a760e01b148152f35b6001600160a01b0316156101f957565b63d92e233d60e01b5f5260045ffdfea2646970667358221220f9d8aadd0e13d62ec6162910ffa00b5cf3eebae6aa991f076797b670c428a2c964736f6c634300081c0033",
          "opcodes": "PUSH1 0x80 CALLVALUE PUSH1 0xB5 JUMPI PUSH1 0x1F PUSH2 0x30C CODESIZE DUP2 SWAP1 SUB SWAP2 DUP3 ADD PUSH1 0x1F NOT AND DUP4 ADD SWAP2 PUSH1 0x1 PUSH1 0x1 PUSH1 0x40 SHL SUB DUP4 GT DUP5 DUP5 LT OR PUSH1 0xB9 JUMPI DUP1 DUP5 SWAP3 PUSH1 0x20 SWAP5 PUSH1 0x40 MSTORE DUP4 CODECOPY DUP2 ADD SUB SLT PUSH1 0xB5 JUMPI MLOAD PUSH1 0x1 PUSH1 0x1 PUSH1 0xA0 SHL SUB DUP2 AND SWAP1 DUP2 SWAP1 SUB PUSH1 0xB5 JUMPI DUP1 ISZERO PUSH1 0xA6 JUMPI PUSH1 0x1 DUP1 PUSH1 0xA0 SHL SUB NOT PUSH0 SLOAD AND OR PUSH0 SSTORE CALLER PUSH1 0x1 DUP1 PUSH1 0xA0 SHL SUB NOT PUSH1 0x1 SLOAD AND OR PUSH1 0x1 SSTORE PUSH1 0x40 MLOAD CALLER PUSH0 PUSH32 0x8BE0079C531659141344CD1FD0A4F28419497F9722A3DAAFE3B4186F6B6457E0 DUP2 DUP1 LOG3 PUSH2 0x23E SWAP1 DUP2 PUSH2 0xCE DUP3 CODECOPY RETURN JUMPDEST PUSH4 0xD92E233D PUSH1 0xE0 SHL PUSH0 MSTORE PUSH1 0x4 PUSH0 REVERT JUMPDEST PUSH0 DUP1 REVERT JUMPDEST PUSH4 0x4E487B71 PUSH1 0xE0 SHL PUSH0 MSTORE PUSH1 0x41 PUSH1 0x4 MSTORE PUSH1 0x24 PUSH0 REVERT INVALID PUSH1 0x80 DUP1 PUSH1 0x40 MSTORE PUSH1 0x4 CALLDATASIZE LT ISZERO PUSH2 0x12 JUMPI PUSH0 DUP1 REVERT JUMPDEST PUSH0 CALLDATALOAD PUSH1 0xE0 SHR SWAP1 DUP2 PUSH4 0x1FFC9A7 EQ PUSH2 0x1B3 JUMPI POP DUP1 PUSH4 0x900F010 EQ PUSH2 0x133 JUMPI DUP1 PUSH4 0x5C60DA1B EQ PUSH2 0x10C JUMPI DUP1 PUSH4 0x8DA5CB5B EQ PUSH2 0xE4 JUMPI PUSH4 0xF2FDE38B EQ PUSH2 0x53 JUMPI PUSH0 DUP1 REVERT JUMPDEST CALLVALUE PUSH2 0xE0 JUMPI PUSH1 0x20 CALLDATASIZE PUSH1 0x3 NOT ADD SLT PUSH2 0xE0 JUMPI PUSH1 0x4 CALLDATALOAD PUSH1 0x1 PUSH1 0x1 PUSH1 0xA0 SHL SUB DUP2 AND SWAP1 DUP2 DUP2 SUB PUSH2 0xE0 JUMPI PUSH1 0x1 SLOAD SWAP1 PUSH1 0x1 PUSH1 0x1 PUSH1 0xA0 SHL SUB DUP3 AND CALLER DUP2 SWAP1 SUB PUSH2 0xCD JUMPI PUSH2 0x99 DUP5 SWAP3 PUSH2 0x1E9 JUMP JUMPDEST PUSH32 0x8BE0079C531659141344CD1FD0A4F28419497F9722A3DAAFE3B4186F6B6457E0 PUSH0 DUP1 LOG3 PUSH1 0x1 PUSH1 0x1 PUSH1 0xA0 SHL SUB NOT AND OR PUSH1 0x1 SSTORE STOP JUMPDEST PUSH4 0x472511EB PUSH1 0xE1 SHL PUSH0 MSTORE CALLER PUSH1 0x4 MSTORE PUSH1 0x24 PUSH0 REVERT JUMPDEST PUSH0 DUP1 REVERT JUMPDEST CALLVALUE PUSH2 0xE0 JUMPI PUSH0 CALLDATASIZE PUSH1 0x3 NOT ADD SLT PUSH2 0xE0 JUMPI PUSH1 0x1 SLOAD PUSH1 0x40 MLOAD PUSH1 0x1 PUSH1 0x1 PUSH1 0xA0 SHL SUB SWAP1 SWAP2 AND DUP2 MSTORE PUSH1 0x20 SWAP1 RETURN JUMPDEST CALLVALUE PUSH2 0xE0 JUMPI PUSH0 CALLDATASIZE PUSH1 0x3 NOT ADD SLT PUSH2 0xE0 JUMPI PUSH0 SLOAD PUSH1 0x40 MLOAD PUSH1 0x1 PUSH1 0x1 PUSH1 0xA0 SHL SUB SWAP1 SWAP2 AND DUP2 MSTORE PUSH1 0x20 SWAP1 RETURN JUMPDEST CALLVALUE PUSH2 0xE0 JUMPI PUSH1 0x20 CALLDATASIZE PUSH1 0x3 NOT ADD SLT PUSH2 0xE0 JUMPI PUSH1 0x4 CALLDATALOAD PUSH1 0x1 PUSH1 0x1 PUSH1 0xA0 SHL SUB DUP2 AND SWAP1 DUP2 DUP2 SUB PUSH2 0xE0 JUMPI PUSH1 0x1 SLOAD PUSH1 0x1 PUSH1 0x1 PUSH1 0xA0 SHL SUB AND CALLER SUB PUSH2 0xCD JUMPI PUSH2 0x174 SWAP1 PUSH2 0x1E9 JUMP JUMPDEST PUSH0 SLOAD DUP2 PUSH1 0x1 DUP1 PUSH1 0xA0 SHL SUB DUP3 AND PUSH32 0x1A5CA99A64512489FD9455E8DA426740174107A69292FCA0A8B80B08F6F67892 PUSH0 DUP1 LOG3 PUSH1 0x1 PUSH1 0x1 PUSH1 0xA0 SHL SUB NOT AND OR PUSH0 SSTORE STOP JUMPDEST CALLVALUE PUSH2 0xE0 JUMPI PUSH1 0x20 CALLDATASIZE PUSH1 0x3 NOT ADD SLT PUSH2 0xE0 JUMPI PUSH1 0x4 CALLDATALOAD SWAP1 PUSH4 0xFFFFFFFF PUSH1 0xE0 SHL DUP3 AND DUP1 SWAP3 SUB PUSH2 0xE0 JUMPI PUSH1 0x20 SWAP2 PUSH4 0x1FFC9A7 PUSH1 0xE0 SHL EQ DUP2 MSTORE RETURN JUMPDEST PUSH1 0x1 PUSH1 0x1 PUSH1 0xA0 SHL SUB AND ISZERO PUSH2 0x1F9 JUMPI JUMP JUMPDEST PUSH4 0xD92E233D PUSH1 0xE0 SHL PUSH0 MSTORE PUSH1 0x4 PUSH0 REVERT INVALID LOG2 PUSH5 0x6970667358 0x22 SLT KECCAK256 0xF9 0xD8 0xAA 0xDD 0xE SGT 0xD6 0x2E 0xC6 AND 0x29 LT SELFDESTRUCT LOG0 SIGNEXTEND TLOAD RETURN 0xEE 0xBA 0xE6 0xAA SWAP10 0x1F SMOD PUSH8 0x97B670C428A2C964 PUSH20 0x6F6C634300081C00330000000000000000000000 "
        },
        "gasEstimates": {
          "creation": {
            "codeDepositCost": "114800",
            "executionCost": "infinite",
            "totalCost": "infinite"
          },
          "external": {
            "implementation()": "2323",
            "owner()": "2346",
            "supportsInterface(bytes4)": "204",
            "transferOwnership(address)": "26117",
            "upgrade(address)": "28164"
          }
        },
        "methodIdentifiers": {
          "implementation()": "5c60da1b",
          "owner()": "8da5cb5b",
          "supportsInterface(bytes4)": "01ffc9a7",
          "transferOwnership(address)": "f2fde38b",
          "upgrade(address)": "0900f010"
        }
      },
      "storageLayout": {
        "storage": [
          {
            "astId": 32,
            "contract": "src/beacon/SimpleVaultBeacon.sol:SimpleVaultBeacon",
            "label": "implementation",
            "offset": 0,
            "slot": "0",
            "type": "t_address"
          },
          {
            "astId": 34,
            "contract": "src/beacon/SimpleVaultBeacon.sol:SimpleVaultBeacon",
            "label": "owner",
            "offset": 0,
            "slot": "1",
            "type": "t_address"
          }
        ],
        "types": {
          "t_address": {
            "encoding": "inplace",
            "label": "address",
            "numberOfBytes": "20"
          }
        }
      },
      "userdoc": {
        "errors": {
          "Unauthorized(address)": [
            {
              "notice": "Operation attempted by non-owner"
            }
          ],
          "ZeroAddress()": [
            {
              "notice": "Zero address provided where a non-zero address is required"
            }
          ]
        },
        "kind": "user",
        "methods": {
          "constructor": {
            "notice": "Constructor"
          },
          "supportsInterface(bytes4)": {
            "notice": "Interface support check"
          },
          "transferOwnership(address)": {
            "notice": "Transfer ownership of the beacon"
          },
          "upgrade(address)": {
            "notice": "Upgrade the implementation"
          }
        },
        "notice": "Simplified beacon contract for vault implementations",
        "version": 1
      }
    }
  }
}