{
  "_format": "hh-sol-artifact-1",
  "contractName": "DiamondLoupeFacetOptimized",
  "sourceName": "src/facets/DiamondLoupeFacetOptimized.sol",
  "abi": [
    {
      "inputs": [
        {
          "internalType": "address[]",
          "name": "_facets",
          "type": "address[]"
        }
      ],
      "name": "batchFacetFunctionSelectors",
      "outputs": [
        {
          "internalType": "bytes4[][]",
          "name": "selectors",
          "type": "bytes4[][]"
        }
      ],
      "stateMutability": "view",
      "type": "function"
    },
    {
      "inputs": [
        {
          "internalType": "address[]",
          "name": "_facetAddresses",
          "type": "address[]"
        }
      ],
      "name": "batchFacets",
      "outputs": [
        {
          "components": [
            {
              "internalType": "address",
              "name": "facetAddress",
              "type": "address"
            },
            {
              "internalType": "bytes4[]",
              "name": "functionSelectors",
              "type": "bytes4[]"
            }
          ],
          "internalType": "struct DiamondLoupeFacetOptimized.Facet[]",
          "name": "facets_",
          "type": "tuple[]"
        }
      ],
      "stateMutability": "view",
      "type": "function"
    },
    {
      "inputs": [],
      "name": "facetAddresses",
      "outputs": [
        {
          "internalType": "address[]",
          "name": "facetAddresses_",
          "type": "address[]"
        }
      ],
      "stateMutability": "view",
      "type": "function"
    },
    {
      "inputs": [
        {
          "internalType": "address",
          "name": "_facet",
          "type": "address"
        }
      ],
      "name": "facetFunctionSelectors",
      "outputs": [
        {
          "internalType": "bytes4[]",
          "name": "selectors",
          "type": "bytes4[]"
        }
      ],
      "stateMutability": "view",
      "type": "function"
    },
    {
      "inputs": [],
      "name": "facets",
      "outputs": [
        {
          "components": [
            {
              "internalType": "address",
              "name": "facetAddress",
              "type": "address"
            },
            {
              "internalType": "bytes4[]",
              "name": "functionSelectors",
              "type": "bytes4[]"
            }
          ],
          "internalType": "struct DiamondLoupeFacetOptimized.Facet[]",
          "name": "facets_",
          "type": "tuple[]"
        }
      ],
      "stateMutability": "view",
      "type": "function"
    },
    {
      "inputs": [
        {
          "internalType": "bytes4",
          "name": "_functionSelector",
          "type": "bytes4"
        }
      ],
      "name": "getFacetAddress",
      "outputs": [
        {
          "internalType": "address",
          "name": "facetAddress_",
          "type": "address"
        }
      ],
      "stateMutability": "view",
      "type": "function"
    },
    {
      "inputs": [
        {
          "internalType": "bytes4[]",
          "name": "_selectors",
          "type": "bytes4[]"
        }
      ],
      "name": "getFacetAddresses",
      "outputs": [
        {
          "internalType": "address[]",
          "name": "addresses",
          "type": "address[]"
        }
      ],
      "stateMutability": "view",
      "type": "function"
    },
    {
      "inputs": [
        {
          "internalType": "bytes4",
          "name": "_interfaceId",
          "type": "bytes4"
        }
      ],
      "name": "supportsInterface",
      "outputs": [
        {
          "internalType": "bool",
          "name": "supported_",
          "type": "bool"
        }
      ],
      "stateMutability": "view",
      "type": "function"
    },
    {
      "inputs": [
        {
          "internalType": "bytes4[]",
          "name": "_interfaceIds",
          "type": "bytes4[]"
        }
      ],
      "name": "supportsInterfaces",
      "outputs": [
        {
          "internalType": "bool[]",
          "name": "supported",
          "type": "bool[]"
        }
      ],
      "stateMutability": "view",
      "type": "function"
    }
  ],
  "bytecode": "0x60808060405234601557610bae908161001a8239f35b5f80fdfe6080806040526004361015610012575f80fd5b5f3560e01c90816301ffc9a7146106b95750806330d39a22146105e657806352ef6b2c1461053e57806362bbd81e146104a45780637a070c2d146104425780637a0ed62714610350578063941d4ea91461022b578063adfca15e146101975763dbdc386a1461007f575f80fd5b346101935760203660031901126101935760043567ffffffffffffffff8111610193576100b0903690600401610715565b906100ba82610872565b916100c8604051938461083c565b8083526100d481610872565b602084019290601f19013684375f5b828110610130578385604051918291602083019060208452518091526040830191905f5b818110610115575050500390f35b82511515845285945060209384019390920191600101610107565b6001906001600160e01b031961014f61014a83878761088a565b6108ae565b165f527fc8fcad8db84d3cc18b4c41d551ea0ee66dd599cde068d998e57d5e09332c131f60205260ff60405f20541661018882886108c3565b9015159052016100e3565b5f80fd5b34610193576020366003190112610193576004356001600160a01b0381168103610193576101dd6101ca6101d692610959565b60405192838092610991565b038261083c565b6040518091602082016020835281518091526020604084019201905f5b818110610208575050500390f35b82516001600160e01b0319168452859450602093840193909201916001016101fa565b346101935760203660031901126101935760043567ffffffffffffffff81116101935761025c903690600401610715565b9061026682610872565b91610274604051938461083c565b808352601f1961028382610872565b015f5b81811061033f5750505f5b8181106102ff57836040518091602082016020835281518091526040830190602060408260051b8601019301915f905b8282106102d057505050500390f35b919360019193955060206102ef8192603f198a82030186528851610788565b96019201920185949391926102c1565b806101d66103236101ca61031e610319600196888a61088a565b610945565b610959565b61032d82876108c3565b5261033881866108c3565b5001610291565b806060602080938801015201610286565b34610193575f366003190112610193577fc8fcad8db84d3cc18b4c41d551ea0ee66dd599cde068d998e57d5e09332c131e5461038b816108d7565b905f5b81811015610430577fc8fcad8db84d3cc18b4c41d551ea0ee66dd599cde068d998e57d5e09332c131e5f527fb5c239a29faf02594141bbc5e6982a9b85ba2b4d59c3ed3baaf4cb8e5e11cbef81015460019190610422906001600160a01b03166103f781610959565b9061040284886108c3565b5152610429602061041385896108c3565b51019160405193848092610991565b038361083c565b520161038e565b6040518061043e85826107c5565b0390f35b346101935760203660031901126101935760043563ffffffff60e01b8116809103610193575f527fc8fcad8db84d3cc18b4c41d551ea0ee66dd599cde068d998e57d5e09332c131d602052602060018060a01b0360405f205416604051908152f35b346101935760203660031901126101935760043567ffffffffffffffff8111610193576104d5903690600401610715565b906104df826108d7565b915f5b8181106104f7576040518061043e86826107c5565b8061042261052861050e610319600195878961088a565b61051884896108c3565b51858060a01b0382169052610959565b6105376020610413858a6108c3565b52016104e2565b34610193575f366003190112610193576040517fc8fcad8db84d3cc18b4c41d551ea0ee66dd599cde068d998e57d5e09332c131e80548083525f91825260208301917fb5c239a29faf02594141bbc5e6982a9b85ba2b4d59c3ed3baaf4cb8e5e11cbef91905b8181106105c75761043e856105bb8187038261083c565b60405191829182610746565b82546001600160a01b03168452602090930192600192830192016105a4565b346101935760203660031901126101935760043567ffffffffffffffff811161019357610617903690600401610715565b61062081610872565b9161062e604051938461083c565b818352601f1961063d83610872565b013660208501375f5b82811061065b576040518061043e8682610746565b6001906001600160e01b031961067561014a83878761088a565b165f527fc8fcad8db84d3cc18b4c41d551ea0ee66dd599cde068d998e57d5e09332c131d602052818060a01b0360405f2054166106b282876108c3565b5201610646565b34610193576020366003190112610193576004359063ffffffff60e01b8216809203610193576020915f527fc8fcad8db84d3cc18b4c41d551ea0ee66dd599cde068d998e57d5e09332c131f825260ff60405f20541615158152f35b9181601f840112156101935782359167ffffffffffffffff8311610193576020808501948460051b01011161019357565b60206040818301928281528451809452019201905f5b8181106107695750505090565b82516001600160a01b031684526020938401939092019160010161075c565b90602080835192838152019201905f5b8181106107a55750505090565b82516001600160e01b031916845260209384019390920191600101610798565b602081016020825282518091526040820191602060408360051b8301019401925f915b8383106107f757505050505090565b909192939460208061082d600193603f198682030187526040838b51878060a01b03815116845201519181858201520190610788565b970193019301919392906107e8565b90601f8019910116810190811067ffffffffffffffff82111761085e57604052565b634e487b7160e01b5f52604160045260245ffd5b67ffffffffffffffff811161085e5760051b60200190565b919081101561089a5760051b0190565b634e487b7160e01b5f52603260045260245ffd5b356001600160e01b0319811681036101935790565b805182101561089a5760209160051b010190565b906108e182610872565b6108ee604051918261083c565b82815280926108ff601f1991610872565b015f5b81811061090e57505050565b60405190604082019180831067ffffffffffffffff84111761085e576020926040525f815260608382015282828601015201610902565b356001600160a01b03811681036101935790565b6001600160a01b03165f9081527fc8fcad8db84d3cc18b4c41d551ea0ee66dd599cde068d998e57d5e09332c13206020526040902090565b80548083525f91825260208083209301925b816007840110610ad9575491818110610aba575b818110610a9b575b818110610a7c575b818110610a5d575b818110610a3e575b818110610a1f575b818110610a02575b106109f0575090565b6001600160e01b031916815260200190565b602083811b6001600160e01b0319168552909301926001016109e7565b604083901b6001600160e01b03191684526020909301926001016109df565b606083901b6001600160e01b03191684526020909301926001016109d7565b608083901b6001600160e01b03191684526020909301926001016109cf565b60a083901b6001600160e01b03191684526020909301926001016109c7565b60c083901b6001600160e01b03191684526020909301926001016109bf565b60e083901b6001600160e01b03191684526020909301926001016109b7565b926001610100600892865463ffffffff60e01b8160e01b16825263ffffffff60e01b8160c01b16602083015263ffffffff60e01b8160a01b16604083015263ffffffff60e01b8160801b16606083015263ffffffff60e01b8160601b16608083015263ffffffff60e01b8160401b1660a083015263ffffffff60e01b8160201b1660c083015263ffffffff60e01b1660e08201520194019201916109a356fea2646970667358221220c1f2c67bbe45a6e8c4b52d7b035c35903d43c0d4005a84d1152cbde89727fb5564736f6c634300081c0033",
  "linkReferences": {},
  "deployedLinkReferences": {}
}