{
  "_format": "hh-sol-artifact-1",
  "contractName": "ERC1155VaultImplementation",
  "sourceName": "src/implementations/ERC1155VaultImplementation.sol",
  "abi": [
    {
      "inputs": [],
      "stateMutability": "nonpayable",
      "type": "constructor"
    },
    {
      "inputs": [],
      "name": "DelegationFailed",
      "type": "error"
    },
    {
      "inputs": [
        {
          "internalType": "address",
          "name": "sender",
          "type": "address"
        },
        {
          "internalType": "uint256",
          "name": "balance",
          "type": "uint256"
        },
        {
          "internalType": "uint256",
          "name": "needed",
          "type": "uint256"
        },
        {
          "internalType": "uint256",
          "name": "tokenId",
          "type": "uint256"
        }
      ],
      "name": "ERC1155InsufficientBalance",
      "type": "error"
    },
    {
      "inputs": [
        {
          "internalType": "address",
          "name": "approver",
          "type": "address"
        }
      ],
      "name": "ERC1155InvalidApprover",
      "type": "error"
    },
    {
      "inputs": [
        {
          "internalType": "uint256",
          "name": "idsLength",
          "type": "uint256"
        },
        {
          "internalType": "uint256",
          "name": "valuesLength",
          "type": "uint256"
        }
      ],
      "name": "ERC1155InvalidArrayLength",
      "type": "error"
    },
    {
      "inputs": [
        {
          "internalType": "address",
          "name": "operator",
          "type": "address"
        }
      ],
      "name": "ERC1155InvalidOperator",
      "type": "error"
    },
    {
      "inputs": [
        {
          "internalType": "address",
          "name": "receiver",
          "type": "address"
        }
      ],
      "name": "ERC1155InvalidReceiver",
      "type": "error"
    },
    {
      "inputs": [
        {
          "internalType": "address",
          "name": "sender",
          "type": "address"
        }
      ],
      "name": "ERC1155InvalidSender",
      "type": "error"
    },
    {
      "inputs": [
        {
          "internalType": "address",
          "name": "operator",
          "type": "address"
        },
        {
          "internalType": "address",
          "name": "owner",
          "type": "address"
        }
      ],
      "name": "ERC1155MissingApprovalForAll",
      "type": "error"
    },
    {
      "inputs": [],
      "name": "InitializationFailed",
      "type": "error"
    },
    {
      "inputs": [],
      "name": "InsufficientSerialNumbers",
      "type": "error"
    },
    {
      "inputs": [],
      "name": "InvalidAmount",
      "type": "error"
    },
    {
      "inputs": [],
      "name": "InvalidBeacon",
      "type": "error"
    },
    {
      "inputs": [],
      "name": "InvalidIndex",
      "type": "error"
    },
    {
      "inputs": [],
      "name": "InvalidInitialization",
      "type": "error"
    },
    {
      "inputs": [],
      "name": "InvalidSerialArraysLength",
      "type": "error"
    },
    {
      "inputs": [],
      "name": "InvalidSerialNumber",
      "type": "error"
    },
    {
      "inputs": [],
      "name": "InvalidSerialNumberData",
      "type": "error"
    },
    {
      "inputs": [],
      "name": "InvalidSerialNumbersCount",
      "type": "error"
    },
    {
      "inputs": [],
      "name": "NoSerialsFound",
      "type": "error"
    },
    {
      "inputs": [],
      "name": "NotDiamond",
      "type": "error"
    },
    {
      "inputs": [],
      "name": "NotInitializing",
      "type": "error"
    },
    {
      "inputs": [
        {
          "internalType": "address",
          "name": "owner",
          "type": "address"
        }
      ],
      "name": "OwnableInvalidOwner",
      "type": "error"
    },
    {
      "inputs": [
        {
          "internalType": "address",
          "name": "account",
          "type": "address"
        }
      ],
      "name": "OwnableUnauthorizedAccount",
      "type": "error"
    },
    {
      "inputs": [],
      "name": "SerialNumberAlreadyUsed",
      "type": "error"
    },
    {
      "inputs": [],
      "name": "SerialNumberDuplicate",
      "type": "error"
    },
    {
      "inputs": [],
      "name": "UseExternalSerialNumbers",
      "type": "error"
    },
    {
      "inputs": [],
      "name": "ZeroAddress",
      "type": "error"
    },
    {
      "anonymous": false,
      "inputs": [
        {
          "indexed": true,
          "internalType": "address",
          "name": "account",
          "type": "address"
        },
        {
          "indexed": true,
          "internalType": "address",
          "name": "operator",
          "type": "address"
        },
        {
          "indexed": false,
          "internalType": "bool",
          "name": "approved",
          "type": "bool"
        }
      ],
      "name": "ApprovalForAll",
      "type": "event"
    },
    {
      "anonymous": false,
      "inputs": [
        {
          "indexed": true,
          "internalType": "uint256",
          "name": "tokenId",
          "type": "uint256"
        },
        {
          "indexed": false,
          "internalType": "uint256[]",
          "name": "serialNumbers",
          "type": "uint256[]"
        }
      ],
      "name": "BatchSerialNumbersAssigned",
      "type": "event"
    },
    {
      "anonymous": false,
      "inputs": [
        {
          "indexed": true,
          "internalType": "address",
          "name": "beacon",
          "type": "address"
        }
      ],
      "name": "BeaconSet",
      "type": "event"
    },
    {
      "anonymous": false,
      "inputs": [
        {
          "indexed": true,
          "internalType": "address",
          "name": "implementation",
          "type": "address"
        },
        {
          "indexed": true,
          "internalType": "bool",
          "name": "success",
          "type": "bool"
        }
      ],
      "name": "DelegatedCall",
      "type": "event"
    },
    {
      "anonymous": false,
      "inputs": [
        {
          "indexed": false,
          "internalType": "uint64",
          "name": "version",
          "type": "uint64"
        }
      ],
      "name": "Initialized",
      "type": "event"
    },
    {
      "anonymous": false,
      "inputs": [
        {
          "indexed": true,
          "internalType": "address",
          "name": "previousOwner",
          "type": "address"
        },
        {
          "indexed": true,
          "internalType": "address",
          "name": "newOwner",
          "type": "address"
        }
      ],
      "name": "OwnershipTransferred",
      "type": "event"
    },
    {
      "anonymous": false,
      "inputs": [
        {
          "indexed": true,
          "internalType": "uint256",
          "name": "tokenId",
          "type": "uint256"
        },
        {
          "indexed": true,
          "internalType": "uint256",
          "name": "serialNumber",
          "type": "uint256"
        }
      ],
      "name": "SerialNumberAssigned",
      "type": "event"
    },
    {
      "anonymous": false,
      "inputs": [
        {
          "indexed": true,
          "internalType": "address",
          "name": "operator",
          "type": "address"
        },
        {
          "indexed": true,
          "internalType": "address",
          "name": "from",
          "type": "address"
        },
        {
          "indexed": true,
          "internalType": "address",
          "name": "to",
          "type": "address"
        },
        {
          "indexed": false,
          "internalType": "uint256[]",
          "name": "ids",
          "type": "uint256[]"
        },
        {
          "indexed": false,
          "internalType": "uint256[]",
          "name": "values",
          "type": "uint256[]"
        }
      ],
      "name": "TransferBatch",
      "type": "event"
    },
    {
      "anonymous": false,
      "inputs": [
        {
          "indexed": true,
          "internalType": "address",
          "name": "operator",
          "type": "address"
        },
        {
          "indexed": true,
          "internalType": "address",
          "name": "from",
          "type": "address"
        },
        {
          "indexed": true,
          "internalType": "address",
          "name": "to",
          "type": "address"
        },
        {
          "indexed": false,
          "internalType": "uint256",
          "name": "id",
          "type": "uint256"
        },
        {
          "indexed": false,
          "internalType": "uint256",
          "name": "value",
          "type": "uint256"
        }
      ],
      "name": "TransferSingle",
      "type": "event"
    },
    {
      "anonymous": false,
      "inputs": [
        {
          "indexed": false,
          "internalType": "string",
          "name": "value",
          "type": "string"
        },
        {
          "indexed": true,
          "internalType": "uint256",
          "name": "id",
          "type": "uint256"
        }
      ],
      "name": "URI",
      "type": "event"
    },
    {
      "inputs": [
        {
          "internalType": "address",
          "name": "account",
          "type": "address"
        },
        {
          "internalType": "uint256",
          "name": "id",
          "type": "uint256"
        }
      ],
      "name": "balanceOf",
      "outputs": [
        {
          "internalType": "uint256",
          "name": "",
          "type": "uint256"
        }
      ],
      "stateMutability": "view",
      "type": "function"
    },
    {
      "inputs": [
        {
          "internalType": "address[]",
          "name": "accounts",
          "type": "address[]"
        },
        {
          "internalType": "uint256[]",
          "name": "ids",
          "type": "uint256[]"
        }
      ],
      "name": "balanceOfBatch",
      "outputs": [
        {
          "internalType": "uint256[]",
          "name": "",
          "type": "uint256[]"
        }
      ],
      "stateMutability": "view",
      "type": "function"
    },
    {
      "inputs": [],
      "name": "beacon",
      "outputs": [
        {
          "internalType": "address",
          "name": "",
          "type": "address"
        }
      ],
      "stateMutability": "view",
      "type": "function"
    },
    {
      "inputs": [
        {
          "internalType": "address",
          "name": "account",
          "type": "address"
        },
        {
          "internalType": "uint256",
          "name": "id",
          "type": "uint256"
        },
        {
          "internalType": "uint256",
          "name": "value",
          "type": "uint256"
        }
      ],
      "name": "burn",
      "outputs": [],
      "stateMutability": "nonpayable",
      "type": "function"
    },
    {
      "inputs": [
        {
          "internalType": "address",
          "name": "account",
          "type": "address"
        },
        {
          "internalType": "uint256[]",
          "name": "ids",
          "type": "uint256[]"
        },
        {
          "internalType": "uint256[]",
          "name": "values",
          "type": "uint256[]"
        }
      ],
      "name": "burnBatch",
      "outputs": [],
      "stateMutability": "nonpayable",
      "type": "function"
    },
    {
      "inputs": [],
      "name": "diamond",
      "outputs": [
        {
          "internalType": "address",
          "name": "",
          "type": "address"
        }
      ],
      "stateMutability": "view",
      "type": "function"
    },
    {
      "inputs": [
        {
          "internalType": "uint256",
          "name": "id",
          "type": "uint256"
        }
      ],
      "name": "exists",
      "outputs": [
        {
          "internalType": "bool",
          "name": "",
          "type": "bool"
        }
      ],
      "stateMutability": "view",
      "type": "function"
    },
    {
      "inputs": [
        {
          "internalType": "address",
          "name": "owner",
          "type": "address"
        },
        {
          "internalType": "uint256",
          "name": "tokenId",
          "type": "uint256"
        }
      ],
      "name": "getFirstSerialByOwner",
      "outputs": [
        {
          "internalType": "uint256",
          "name": "",
          "type": "uint256"
        }
      ],
      "stateMutability": "view",
      "type": "function"
    },
    {
      "inputs": [
        {
          "internalType": "uint256",
          "name": "serialNumber",
          "type": "uint256"
        }
      ],
      "name": "getOwnerOfSerial",
      "outputs": [
        {
          "internalType": "address",
          "name": "",
          "type": "address"
        }
      ],
      "stateMutability": "view",
      "type": "function"
    },
    {
      "inputs": [
        {
          "internalType": "address",
          "name": "owner",
          "type": "address"
        },
        {
          "internalType": "uint256",
          "name": "tokenId",
          "type": "uint256"
        },
        {
          "internalType": "uint256",
          "name": "index",
          "type": "uint256"
        }
      ],
      "name": "getSerialByOwnerAtIndex",
      "outputs": [
        {
          "internalType": "uint256",
          "name": "",
          "type": "uint256"
        }
      ],
      "stateMutability": "view",
      "type": "function"
    },
    {
      "inputs": [
        {
          "internalType": "address",
          "name": "owner",
          "type": "address"
        },
        {
          "internalType": "uint256",
          "name": "tokenId",
          "type": "uint256"
        }
      ],
      "name": "getSerials",
      "outputs": [
        {
          "internalType": "uint256[]",
          "name": "",
          "type": "uint256[]"
        }
      ],
      "stateMutability": "view",
      "type": "function"
    },
    {
      "inputs": [
        {
          "internalType": "uint256",
          "name": "serialNumber",
          "type": "uint256"
        }
      ],
      "name": "getTokenIdForSerialNumber",
      "outputs": [
        {
          "internalType": "uint256",
          "name": "",
          "type": "uint256"
        }
      ],
      "stateMutability": "view",
      "type": "function"
    },
    {
      "inputs": [],
      "name": "implementation",
      "outputs": [
        {
          "internalType": "address",
          "name": "",
          "type": "address"
        }
      ],
      "stateMutability": "view",
      "type": "function"
    },
    {
      "inputs": [
        {
          "internalType": "string",
          "name": "uri_",
          "type": "string"
        },
        {
          "internalType": "address",
          "name": "diamondAddress",
          "type": "address"
        }
      ],
      "name": "initialize",
      "outputs": [],
      "stateMutability": "nonpayable",
      "type": "function"
    },
    {
      "inputs": [
        {
          "internalType": "address",
          "name": "account",
          "type": "address"
        },
        {
          "internalType": "address",
          "name": "operator",
          "type": "address"
        }
      ],
      "name": "isApprovedForAll",
      "outputs": [
        {
          "internalType": "bool",
          "name": "",
          "type": "bool"
        }
      ],
      "stateMutability": "view",
      "type": "function"
    },
    {
      "inputs": [],
      "name": "isSerialized",
      "outputs": [
        {
          "internalType": "bool",
          "name": "",
          "type": "bool"
        }
      ],
      "stateMutability": "pure",
      "type": "function"
    },
    {
      "inputs": [
        {
          "internalType": "address",
          "name": "to",
          "type": "address"
        },
        {
          "internalType": "uint256[]",
          "name": "ids",
          "type": "uint256[]"
        },
        {
          "internalType": "uint256[]",
          "name": "amounts",
          "type": "uint256[]"
        },
        {
          "internalType": "uint256[][]",
          "name": "serialNumbers",
          "type": "uint256[][]"
        }
      ],
      "name": "mintBatch",
      "outputs": [],
      "stateMutability": "nonpayable",
      "type": "function"
    },
    {
      "inputs": [
        {
          "internalType": "address",
          "name": "to",
          "type": "address"
        },
        {
          "internalType": "uint256",
          "name": "id",
          "type": "uint256"
        },
        {
          "internalType": "uint256",
          "name": "amount",
          "type": "uint256"
        },
        {
          "internalType": "uint256[]",
          "name": "serialNumbers",
          "type": "uint256[]"
        }
      ],
      "name": "mintWithSerial",
      "outputs": [],
      "stateMutability": "nonpayable",
      "type": "function"
    },
    {
      "inputs": [],
      "name": "owner",
      "outputs": [
        {
          "internalType": "address",
          "name": "",
          "type": "address"
        }
      ],
      "stateMutability": "view",
      "type": "function"
    },
    {
      "inputs": [],
      "name": "renounceOwnership",
      "outputs": [],
      "stateMutability": "nonpayable",
      "type": "function"
    },
    {
      "inputs": [
        {
          "internalType": "address",
          "name": "from",
          "type": "address"
        },
        {
          "internalType": "address",
          "name": "to",
          "type": "address"
        },
        {
          "internalType": "uint256[]",
          "name": "ids",
          "type": "uint256[]"
        },
        {
          "internalType": "uint256[]",
          "name": "values",
          "type": "uint256[]"
        },
        {
          "internalType": "bytes",
          "name": "data",
          "type": "bytes"
        }
      ],
      "name": "safeBatchTransferFrom",
      "outputs": [],
      "stateMutability": "nonpayable",
      "type": "function"
    },
    {
      "inputs": [
        {
          "internalType": "address",
          "name": "from",
          "type": "address"
        },
        {
          "internalType": "address",
          "name": "to",
          "type": "address"
        },
        {
          "internalType": "uint256",
          "name": "id",
          "type": "uint256"
        },
        {
          "internalType": "uint256",
          "name": "value",
          "type": "uint256"
        },
        {
          "internalType": "bytes",
          "name": "data",
          "type": "bytes"
        }
      ],
      "name": "safeTransferFrom",
      "outputs": [],
      "stateMutability": "nonpayable",
      "type": "function"
    },
    {
      "inputs": [
        {
          "internalType": "address",
          "name": "operator",
          "type": "address"
        },
        {
          "internalType": "bool",
          "name": "approved",
          "type": "bool"
        }
      ],
      "name": "setApprovalForAll",
      "outputs": [],
      "stateMutability": "nonpayable",
      "type": "function"
    },
    {
      "inputs": [
        {
          "internalType": "string",
          "name": "newuri",
          "type": "string"
        }
      ],
      "name": "setURI",
      "outputs": [],
      "stateMutability": "nonpayable",
      "type": "function"
    },
    {
      "inputs": [
        {
          "internalType": "bytes4",
          "name": "interfaceId",
          "type": "bytes4"
        }
      ],
      "name": "supportsInterface",
      "outputs": [
        {
          "internalType": "bool",
          "name": "",
          "type": "bool"
        }
      ],
      "stateMutability": "view",
      "type": "function"
    },
    {
      "inputs": [],
      "name": "totalSupply",
      "outputs": [
        {
          "internalType": "uint256",
          "name": "",
          "type": "uint256"
        }
      ],
      "stateMutability": "view",
      "type": "function"
    },
    {
      "inputs": [
        {
          "internalType": "uint256",
          "name": "id",
          "type": "uint256"
        }
      ],
      "name": "totalSupply",
      "outputs": [
        {
          "internalType": "uint256",
          "name": "",
          "type": "uint256"
        }
      ],
      "stateMutability": "view",
      "type": "function"
    },
    {
      "inputs": [
        {
          "internalType": "address",
          "name": "newOwner",
          "type": "address"
        }
      ],
      "name": "transferOwnership",
      "outputs": [],
      "stateMutability": "nonpayable",
      "type": "function"
    },
    {
      "inputs": [
        {
          "internalType": "uint256",
          "name": "tokenId",
          "type": "uint256"
        }
      ],
      "name": "uri",
      "outputs": [
        {
          "internalType": "string",
          "name": "",
          "type": "string"
        }
      ],
      "stateMutability": "view",
      "type": "function"
    },
    {
      "inputs": [],
      "name": "version",
      "outputs": [
        {
          "internalType": "string",
          "name": "",
          "type": "string"
        }
      ],
      "stateMutability": "pure",
      "type": "function"
    }
  ],
  "bytecode": "0x6080806040523460aa575f5160206127495f395f51905f525460ff8160401c16609b576002600160401b03196001600160401b038216016049575b60405161269a90816100af8239f35b6001600160401b0319166001600160401b039081175f5160206127495f395f51905f525581527fc7f505b2f371ae2175ee4913f4499e1f2633a7b5936321eed1cdaeb6115181d290602090a15f80603a565b63f92ee8a960e01b5f5260045ffd5b5f80fdfe60806040526004361015610011575f80fd5b5f3560e01c8062fdd58e146101f357806301ffc9a7146101ee57806302fe5305146101e95780630e89341c146101e457806318160ddd146101df5780632eb2c2d6146101da5780634aef2b15146101d55780634e1273f4146101d05780634f558e79146101cb57806354fd4d50146101c657806359659e90146101c15780635c60da1b146101bc5780636b20c454146101b7578063715018a6146101b25780637ab4339d146101ad5780638cc780de146101a85780638da5cb5b146101a35780639a7f1f7d1461019e5780639b808ef114610199578063a0f174f614610194578063a22cb4651461018f578063bbe215f31461018a578063bd85b03914610185578063cba8070314610180578063d3971e141461017b578063e985e9c514610176578063f0b7db4e14610171578063f242432a1461016c578063f2fde38b146101675763f5298aca14610162575f80fd5b61129f565b611276565b6111bd565b611196565b611159565b611022565b610fc3565b610f50565b610f1e565b610e78565b610e5d565b610dde565b610db4565b610d80565b610d13565b610b8c565b610b25565b610a4b565b610a31565b6109ea565b6109a7565b61095c565b61089d565b61075d565b6106a3565b610556565b610431565b610371565b6102a3565b61023c565b600435906001600160a01b038216820361020e57565b5f80fd5b602435906001600160a01b038216820361020e57565b35906001600160a01b038216820361020e57565b3461020e57604036600319011261020e57602061028861025a6101f8565b6024355f525f5160206125e55f395f51905f52835260405f209060018060a01b03165f5260205260405f2090565b54604051908152f35b6001600160e01b031981160361020e57565b3461020e57602036600319011261020e576004356102c081610291565b63ffffffff60e01b16631760ddd560e21b8114908115610333575b81156102f0575b506040519015158152602090f35b636cdb3d1360e11b811491508115610322575b8115610311575b505f6102e2565b6301ffc9a760e01b1490505f61030a565b6303a24d0760e21b81149150610303565b630505448b60e01b811491506102db565b9181601f8401121561020e578235916001600160401b03831161020e576020838186019501011161020e57565b3461020e57602036600319011261020e576004356001600160401b03811161020e576103a1903690600401610344565b5f546001600160a01b031633036103c8576103c6916103c1913691610652565b6116da565b005b636825b1d560e11b5f5260045ffd5b5f5b8381106103e85750505f910152565b81810151838201526020016103d9565b90602091610411815180928185528580860191016103d7565b601f01601f1916010190565b90602061042e9281815201906103f8565b90565b3461020e57602036600319011261020e57600435604051905f5f5160206126455f395f51905f525461046281611646565b808552906001811690811561053457506001146104d0575b6104cc6104ac6104c0866104b261049c88610497848a0385610593565b61181d565b60405194859360208501906113c4565b906113c4565b03601f198101835282610593565b6040519182918261041d565b0390f35b5f5160206126455f395f51905f525f90815291507ff429cb5e2ec84cbb765e76b31964a56ccde03e7a6122d6cc4afb19edc55edeed5b81831061051a57505082016020018261047a565b600181602092949394548385890101520191019190610506565b60ff191660208087019190915291151560051b8501909101915083905061047a565b3461020e575f36600319011261020e5760205f5160206126055f395f51905f5254604051908152f35b634e487b7160e01b5f52604160045260245ffd5b90601f801991011681019081106001600160401b038211176105b457604052565b61057f565b6001600160401b0381116105b45760051b60200190565b9291906105dc816105b9565b936105ea6040519586610593565b602085838152019160051b810192831161020e57905b82821061060c57505050565b8135815260209182019101610600565b9080601f8301121561020e5781602061042e933591016105d0565b6001600160401b0381116105b457601f01601f191660200190565b92919261065e82610637565b9161066c6040519384610593565b82948184528183011161020e578281602093845f960137010152565b9080601f8301121561020e5781602061042e93359101610652565b3461020e5760a036600319011261020e576106bc6101f8565b6106c4610212565b906044356001600160401b03811161020e576106e490369060040161061c565b6064356001600160401b03811161020e5761070390369060040161061c565b90608435936001600160401b03851161020e576107276103c6953690600401610688565b936113db565b9181601f8401121561020e578235916001600160401b03831161020e576020808501948460051b01011161020e57565b3461020e57608036600319011261020e576107766101f8565b602435906044356064356001600160401b03811161020e5761079c90369060040161072d565b5f54909491906001600160a01b031633036103c857821561084a5782850361083b57604051906107cd602083610593565b5f82526001600160a01b03851615610828576103c69561081b6108229361081487879160405192600184526020840152604083019160018352606084015260808301604052565b9089611b0e565b36916105d0565b926119a7565b632bfa23e760e11b5f525f60045260245ffd5b63237bde5160e21b5f5260045ffd5b63162908e360e11b5f5260045ffd5b90602080835192838152019201905f5b8181106108765750505090565b8251845260209384019390920191600101610869565b90602061042e928181520190610859565b3461020e57604036600319011261020e576004356001600160401b03811161020e573660238201121561020e578060040135906108d9826105b9565b916108e76040519384610593565b8083526024602084019160051b8301019136831161020e57602401905b82821061094457836024356001600160401b03811161020e576104cc9161093261093892369060040161061c565b9061145b565b6040519182918261088c565b6020809161095184610228565b815201910190610904565b3461020e57602036600319011261020e576004355f527f4a593662ee04d27b6a00ebb31be7fe0c102c2ade82a7c5d764f2df05dc4e2800602052602060405f20541515604051908152f35b3461020e575f36600319011261020e576104cc6040516109c8604082610593565b60018152603160f81b60208201526040519182916020835260208301906103f8565b3461020e575f36600319011261020e577fa3f0ad74e5423aebfd80d3ef4346578335a9a72aeaee59ff6cb3582b35133d50546040516001600160a01b039091168152602090f35b3461020e575f36600319011261020e576020604051308152f35b3461020e57606036600319011261020e57610a646101f8565b6024356001600160401b03811161020e57610a8390369060040161061c565b906044356001600160401b03811161020e57610aa390369060040161061c565b5f546001600160a01b031633036103c8576001600160a01b0382163381141580610b14575b610afe5715610aec576103c69260405192610ae4602085610593565b5f8452611c7d565b626a0d4560e21b5f525f60045260245ffd5b63711bec9160e11b5f523360045260245260445ffd5b50610b1f33846115c1565b15610ac8565b3461020e575f36600319011261020e57610b3d611ac4565b5f5160206125c55f395f51905f5280546001600160a01b031981169091555f906001600160a01b03167f8be0079c531659141344cd1fd0a4f28419497f9722a3daafe3b4186f6b6457e08280a3005b3461020e57604036600319011261020e576004356001600160401b03811161020e57610bbc903690600401610344565b90610bc5610212565b5f5160206126255f395f51905f5254926001600160401b03610bf660ff604087901c1615956001600160401b031690565b1680159081610d0b575b6001149081610d01575b159081610cf8575b50610ce957610c559284610c4c60016001600160401b03195f5160206126255f395f51905f525416175f5160206126255f395f51905f5255565b610cb4576114f0565b610c5b57005b610c8560ff60401b195f5160206126255f395f51905f5254165f5160206126255f395f51905f5255565b604051600181527fc7f505b2f371ae2175ee4913f4499e1f2633a7b5936321eed1cdaeb6115181d290602090a1005b610ce4600160401b60ff60401b195f5160206126255f395f51905f525416175f5160206126255f395f51905f5255565b6114f0565b63f92ee8a960e01b5f5260045ffd5b9050155f610c12565b303b159150610c0a565b859150610c00565b3461020e57604036600319011261020e57610d2c6101f8565b6001600160a01b03165f90815260026020908152604080832060243584529091529020805415610d71575f526104cc60205f2054604051918291829190602083019252565b63c28700ed60e01b5f5260045ffd5b3461020e575f36600319011261020e575f5160206125c55f395f51905f52546040516001600160a01b039091168152602090f35b3461020e57602036600319011261020e576004355f526001602052602060405f2054604051908152f35b3461020e57604036600319011261020e57610df76101f8565b6024359060018060a01b03165f52600260205260405f20905f5260205260405f206040519081602082549182815201915f5260205f20905f5b818110610e47576104cc8561093881870382610593565b8254845260209093019260019283019201610e30565b3461020e575f36600319011261020e57602060405160018152f35b3461020e57604036600319011261020e57610e916101f8565b60243580151580910361020e576001600160a01b038216918215610f0c57610ed190610ebc33611358565b9060018060a01b03165f5260205260405f2090565b60ff1981541660ff83161790556040519081527f17307eab39ab6107e8899845ad3d59bd9653f200f220920489ca2b5937696c3160203392a3005b62ced3e160e81b5f525f60045260245ffd5b3461020e57602036600319011261020e576004355f526003602052602060018060a01b0360405f205416604051908152f35b3461020e57602036600319011261020e576004355f527f4a593662ee04d27b6a00ebb31be7fe0c102c2ade82a7c5d764f2df05dc4e2800602052602060405f2054604051908152f35b606090600319011261020e576004356001600160a01b038116810361020e57906024359060443590565b3461020e57610fd136610f99565b9160018060a01b03165f52600260205260405f20905f5260205260405f2080548210156110135760209161100491611558565b90549060031b1c604051908152f35b6363df817160e01b5f5260045ffd5b3461020e57608036600319011261020e5761103b6101f8565b6024356001600160401b03811161020e5761105a90369060040161072d565b6044929192356001600160401b03811161020e5761107c90369060040161072d565b9390916064356001600160401b03811161020e5761109e90369060040161072d565b5f546001600160a01b031633036103c85782810361114a575f5b8381106110f3576103c687896110db896110d3368a8c6105d0565b9236916105d0565b90604051926110eb602085610593565b5f8452611af7565b6110fe81838561156d565b905061110b828a896115b1565b350361083b578061114461112260019387896115b1565b3561112e838c8b6115b1565b3561113d61081b85888a61156d565b918b6119a7565b016110b8565b63149c3bbf60e21b5f5260045ffd5b3461020e57604036600319011261020e57602060ff61118a6111796101f8565b610ebc611184610212565b91611358565b54166040519015158152f35b3461020e575f36600319011261020e575f546040516001600160a01b039091168152602090f35b3461020e5760a036600319011261020e576111d66101f8565b6111de610212565b60443590606435926084356001600160401b03811161020e57611205903690600401610688565b926001600160a01b0382163381141580611265575b610afe576001600160a01b038416156108285715610aec576103c69461125d60405192600184526020840152604083019160018352606084015260808301604052565b929091611d72565b5061127033846115c1565b1561121a565b3461020e57602036600319011261020e576103c66112926101f8565b61129a611ac4565b6115d5565b3461020e576112ad36610f99565b5f54909291906001600160a01b031633036103c8576001600160a01b038216338114158061131a575b610afe5715610aec576103c69261130a60405192600184526020840152604083019160018352606084015260808301604052565b9060405192610ae4602085610593565b5061132533846115c1565b156112d6565b5f527f4a593662ee04d27b6a00ebb31be7fe0c102c2ade82a7c5d764f2df05dc4e280060205260405f2090565b6001600160a01b03165f9081527f88be536d5240c274a3b1d3a1be54482fd9caa294f08c62a7cde569f49a3c45016020526040902090565b6113c0915f525f5160206125e55f395f51905f5260205260405f209060018060a01b03165f5260205260405f2090565b5490565b906113d7602092828151948592016103d7565b0190565b939291906001600160a01b0385163381141580611416575b610afe576001600160a01b038216156108285715610aec5761141494611d72565b565b5060ff61142633610ebc89611358565b5416156113f3565b634e487b7160e01b5f52603260045260245ffd5b80518210156114565760209160051b010190565b61142e565b919091805183518082036114db575050805190611477826105b9565b916114856040519384610593565b808352611494601f19916105b9565b013660208401375f5b81518110156114d457806114c360019260051b6020808287010151918901015190611390565b6114cd8286611442565b520161149d565b5090925050565b635b05999160e01b5f5260045260245260445ffd5b6114ff9061150f923691610652565b611507611f01565b6103c1611f01565b611517611f01565b61151f611f01565b611527611f01565b61152f611f01565b611538336115d5565b60018060a01b03166bffffffffffffffffffffffff60a01b5f5416175f55565b8054821015611456575f5260205f2001905f90565b91908110156114565760051b81013590601e198136030182121561020e5701908135916001600160401b03831161020e576020018260051b3603811361020e579190565b91908110156114565760051b0190565b60ff91610ebc6115d092611358565b541690565b6001600160a01b03168015611633575f5160206125c55f395f51905f5280546001600160a01b0319811683179091556001600160a01b03167f8be0079c531659141344cd1fd0a4f28419497f9722a3daafe3b4186f6b6457e05f80a3565b631e4fbdf760e01b5f525f60045260245ffd5b90600182811c92168015611674575b602083101461166057565b634e487b7160e01b5f52602260045260245ffd5b91607f1691611655565b601f811161168a575050565b5f5160206126455f395f51905f525f5260205f20906020601f840160051c830193106116d0575b601f0160051c01905b8181106116c5575050565b5f81556001016116ba565b90915081906116b1565b9081516001600160401b0381116105b45761170b816117065f5160206126455f395f51905f5254611646565b61167e565b602092601f82116001146117575761173b929382915f9261174c575b50508160011b915f199060031b1c19161790565b5f5160206126455f395f51905f5255565b015190505f80611727565b5f5160206126455f395f51905f525f52601f198216937ff429cb5e2ec84cbb765e76b31964a56ccde03e7a6122d6cc4afb19edc55edeed915f5b8681106117d357508360019596106117bb575b505050811b015f5160206126455f395f51905f5255565b01515f1960f88460031b161c191690555f80806117a4565b91926020600181928685015181550194019201611791565b906117f582610637565b6118026040519182610593565b8281528092611813601f1991610637565b0190602036910137565b805f9172184f03e93ff9f4daa797ed6e38ed64bf6a1f0160401b821015611950575b806d04ee2d6d415b85acef8100000000600a921015611934575b662386f26fc1000081101561191f575b6305f5e10081101561190d575b6127108110156118fd575b60648110156118ee575b10156118e3575b6118ce60216118a3600185016117eb565b938401015b5f1901916f181899199a1a9b1b9c1cb0b131b232b360811b600a82061a8353600a900490565b80156118de576118ce90916118a8565b505090565b600190910190611892565b6002906064900493019261188b565b6004906127109004930192611881565b6008906305f5e1009004930192611876565b601090662386f26fc100009004930192611869565b6020906d04ee2d6d415b85acef81000000009004930192611859565b506040915072184f03e93ff9f4daa797ed6e38ed64bf6a1f0160401b810461183f565b8054600160401b8110156105b45761199091600182018155611558565b819291549060031b91821b915f19901b1916179055565b6001600160a01b0381165f90815260026020526040902090939190815f5260205260405f20915f5b8481106119de57505050505050565b6119e88183611442565b51908115611ab557611a21611a15611a08845f52600360205260405f2090565b546001600160a01b031690565b6001600160a01b031690565b611aa65781611a5d88611a3e6001955f52600360205260405f2090565b80546001600160a01b0319166001600160a01b03909216919091179055565b84611a70825f52600160205260405f2090565b55611a7b8187611973565b847fa7661632873ed8bd9bc2f0df2482f8c1f1f6816ec190055aaab24f30baee49db5f80a3016119cf565b6331a340c760e21b5f5260045ffd5b635063a24960e11b5f5260045ffd5b5f5160206125c55f395f51905f52546001600160a01b03163303611ae457565b63118cdaa760e01b5f523360045260245ffd5b9291906001600160a01b0384161561082857611414935b93919091611b1e8284875f6123e3565b5f94855b8451871015611b6557611b5d6001918860051b90611b4b602080848a010151938a01015161132b565b611b568382546121a4565b90556121a4565b960195611b22565b611b97919594929650611b86905f5160206126055f395f51905f52546121a4565b5f5160206126055f395f51905f5255565b6001600160a01b0384161580611c0f575b8080611c08575b15611c0357611bbf83835f6122f6565b15611bcb575b50505050565b8051600103611bf35790602080611bea95930151910151915f336120f2565b5f808080611bc5565b611bfe935f33611fc3565b611bea565b611bbf565b505f611baf565b935f9591935f965b8551881015611c4c576001908860051b90611c3d602080848a010151938a01015161132b565b82815403905501970196611c17565b611c7891959397509591955f5160206126055f395f51905f5254035f5160206126055f395f51905f5255565b611ba8565b9091939250611c8e84835f846123e3565b6001600160a01b038116159283611d16575b5f91825b8451841015611cd9576001908460051b90611cca602080848c010151938901015161132b565b82815403905501930192611ca4565b611d04919592969493505f5160206126055f395f51905f5254035f5160206126055f395f51905f5255565b611d1157611414926122f6565b505050565b925f91825b8451841015611d4c57611d446001918560051b90611b4b602080848d010151938a01015161132b565b930192611d1b565b611d6d919350611b86909592955f5160206126055f395f51905f52546121a4565b611ca0565b91939290611d82828683866123e3565b6001600160a01b0383161580611e9e575b6001600160a01b038216159081611e2e575b8180611e26575b15611e015750611dbd8387866122f6565b15611dca575b5050505050565b8451600103611df057602080611de696015192015192336120f2565b5f80808080611dc3565b611dfc94919233611fc3565b611de6565b1580611e1e575b15611dbd57611e19838784876121ff565b611dbd565b508015611e08565b508015611dac565b9594915f94915f955b8751871015611e6c576001908760051b90611e5d602080848b010151938c01015161132b565b82815403905501960195611e37565b611e999193965097919396975f5160206126055f395f51905f5254035f5160206126055f395f51905f5255565b611da5565b9591925f94915f955b8751871015611ed857611ed06001918860051b90611b4b602080848c010151938d01015161132b565b960195611ea7565b611efc91939650611b869098929594985f5160206126055f395f51905f52546121a4565b611d93565b60ff5f5160206126255f395f51905f525460401c1615611f1d57565b631afcd79f60e31b5f5260045ffd5b9081602091031261020e575161042e81610291565b6001600160a01b0391821681529116602082015260a06040820181905261042e9491939192611f869291611f789190860190610859565b908482036060860152610859565b9160808184039101526103f8565b3d15611fbe573d90611fa582610637565b91611fb36040519384610593565b82523d5f602084013e565b606090565b9091949293853b611fd7575b505050505050565b602093611ff991604051968795869563bc197c8160e01b875260048701611f41565b03815f6001600160a01b0387165af15f9181612088575b5061204a575061201e611f94565b805191908261204357632bfa23e760e11b5f526001600160a01b03821660045260245ffd5b9050602001fd5b6001600160e01b0319166343e6837f60e01b0161206d57505f8080808080611fcf565b632bfa23e760e11b5f526001600160a01b031660045260245ffd5b6120ab91925060203d6020116120b2575b6120a38183610593565b810190611f2c565b905f612010565b503d612099565b6001600160a01b039182168152911660208201526040810191909152606081019190915260a06080820181905261042e929101906103f8565b9091949293853b61210557505050505050565b60209361212791604051968795869563f23a6e6160e01b8752600487016120b9565b03815f6001600160a01b0387165af15f918161216f575b5061214c575061201e611f94565b6001600160e01b031916630dc5919f60e01b0161206d57505f8080808080611fcf565b61218991925060203d6020116120b2576120a38183610593565b905f61213e565b634e487b7160e01b5f52601160045260245ffd5b919082018092116121b157565b612190565b5f198101919082116121b157565b805480156121eb575f1901906121da8282611558565b8154905f199060031b1b1916905555565b634e487b7160e01b5f52603160045260245ffd5b91928351935f5b85811061221557505050505050565b61221f8183611442565b5161222a8285611442565b519061227961225a8261224d8a60018060a01b03165f52600260205260405f2090565b905f5260205260405f2090565b6001600160a01b0388165f90815260026020526040902090929061224d565b828254106122e7575f5b8381106122965750505050600101612206565b6001906122e189611a3e6122c06122b66122b089546121b6565b89611558565b90549060031b1c90565b6122c9886121c4565b6122d38188611973565b5f52600360205260405f2090565b01612283565b6340a2fb3960e11b5f5260045ffd5b918151915f5b83811061230a575050505050565b6123148183611442565b516123426123228386611442565b516001600160a01b0388165f90815260026020526040902090929061224d565b818154106122e7575f5b82811061235e575050506001016122fc565b6001905f6123ae61237b6122b661237587546121b6565b87611558565b6123a0612390825f52600360205260405f2090565b80546001600160a01b0319169055565b5f52600160205260405f2090565b556123b8836121c4565b0161234c565b90916123d561042e93604084526040840190610859565b916020818403910152610859565b93929180518351908181036125af5750505f5b8151811015612509578060051b90602080838501015192860101518460018060a01b038916612472575b6001936001600160a01b03821661243b575b505050016123f6565b61246891610ebc612460925f525f5160206125e55f395f51905f5260205260405f2090565b9182546121a4565b90555f8481612432565b50909161249788610ebc835f525f5160206125e55f395f51905f5260205260405f2090565b548281106124d2578291600194938792036124ca8b610ebc845f525f5160206125e55f395f51905f5260205260405f2090565b559350612420565b6040516303dee4c560e01b81526001600160a01b038a16600482015260248101919091526044810183905260648101829052608490fd5b50805193949391929160010361256c576020908101519181015160408051938452918301526001600160a01b03928316939092169133917fc3d58168c5ae7397731d063d5bbf3d657854427343f4c083240f7aacaa2d0f6291819081015b0390a4565b6040516001600160a01b03938416949093169233927f4a39dc06d4c0dbc64b70af90fd698a233a518aa5d07e595d983b8c0526c8f7fb92829161256791836123be565b635b05999160e01b5f5260045260245260445ffdfe9016d09d72d40fdae2fd8ceac6b6234c7706214fd39c1cd1e609a0528c19930088be536d5240c274a3b1d3a1be54482fd9caa294f08c62a7cde569f49a3c45004a593662ee04d27b6a00ebb31be7fe0c102c2ade82a7c5d764f2df05dc4e2801f0c57e16840df040f15088dc2f81fe391c3923bec73e23a9662efc9c229c6a0088be536d5240c274a3b1d3a1be54482fd9caa294f08c62a7cde569f49a3c4502a26469706673582212201509b6cb7844309a5c6735ec4bc305bf645fddd18205e1f715109da8b9f9768c64736f6c634300081c0033f0c57e16840df040f15088dc2f81fe391c3923bec73e23a9662efc9c229c6a00",
  "linkReferences": {},
  "deployedLinkReferences": {}
}