{
  "_format": "hh-sol-artifact-1",
  "contractName": "EmblemVaultInitFacet",
  "sourceName": "src/facets/EmblemVaultInitFacet.sol",
  "abi": [
    {
      "inputs": [],
      "name": "AlreadyInitialized",
      "type": "error"
    },
    {
      "inputs": [],
      "name": "InitializationFailed",
      "type": "error"
    },
    {
      "inputs": [],
      "name": "NotContractOwner",
      "type": "error"
    },
    {
      "inputs": [],
      "name": "ZeroAddress",
      "type": "error"
    },
    {
      "anonymous": false,
      "inputs": [
        {
          "indexed": false,
          "internalType": "bool",
          "name": "byPassable",
          "type": "bool"
        }
      ],
      "name": "BypassStateInitialized",
      "type": "event"
    },
    {
      "anonymous": false,
      "inputs": [
        {
          "indexed": true,
          "internalType": "bytes4",
          "name": "interfaceId",
          "type": "bytes4"
        },
        {
          "indexed": false,
          "internalType": "string",
          "name": "name",
          "type": "string"
        }
      ],
      "name": "InterfaceIdSet",
      "type": "event"
    },
    {
      "anonymous": false,
      "inputs": [
        {
          "indexed": false,
          "internalType": "bool",
          "name": "enabled",
          "type": "bool"
        }
      ],
      "name": "UnvaultingEnabled",
      "type": "event"
    },
    {
      "anonymous": false,
      "inputs": [
        {
          "indexed": true,
          "internalType": "address",
          "name": "owner",
          "type": "address"
        },
        {
          "indexed": false,
          "internalType": "string",
          "name": "metadataBaseUri",
          "type": "string"
        },
        {
          "indexed": false,
          "internalType": "bool",
          "name": "byPassable",
          "type": "bool"
        },
        {
          "indexed": false,
          "internalType": "bool",
          "name": "initialized",
          "type": "bool"
        }
      ],
      "name": "VaultInitialized",
      "type": "event"
    },
    {
      "anonymous": false,
      "inputs": [
        {
          "indexed": true,
          "internalType": "address",
          "name": "witness",
          "type": "address"
        },
        {
          "indexed": false,
          "internalType": "uint256",
          "name": "witnessCount",
          "type": "uint256"
        }
      ],
      "name": "WitnessInitialized",
      "type": "event"
    },
    {
      "inputs": [],
      "name": "getConfiguration",
      "outputs": [
        {
          "internalType": "string",
          "name": "metadataBaseUri",
          "type": "string"
        },
        {
          "internalType": "address",
          "name": "recipientAddress",
          "type": "address"
        },
        {
          "internalType": "bool",
          "name": "unvaultingEnabled",
          "type": "bool"
        },
        {
          "internalType": "bool",
          "name": "byPassable",
          "type": "bool"
        },
        {
          "internalType": "uint256",
          "name": "witnessCount",
          "type": "uint256"
        }
      ],
      "stateMutability": "view",
      "type": "function"
    },
    {
      "inputs": [],
      "name": "getInitVersion",
      "outputs": [
        {
          "internalType": "string",
          "name": "",
          "type": "string"
        }
      ],
      "stateMutability": "pure",
      "type": "function"
    },
    {
      "inputs": [],
      "name": "getInitializationDetails",
      "outputs": [
        {
          "internalType": "address",
          "name": "owner",
          "type": "address"
        },
        {
          "internalType": "bool",
          "name": "initialized",
          "type": "bool"
        },
        {
          "internalType": "uint256",
          "name": "witnessCount",
          "type": "uint256"
        }
      ],
      "stateMutability": "view",
      "type": "function"
    },
    {
      "inputs": [],
      "name": "getInterfaceIds",
      "outputs": [
        {
          "internalType": "bytes4",
          "name": "erc1155",
          "type": "bytes4"
        },
        {
          "internalType": "bytes4",
          "name": "erc20",
          "type": "bytes4"
        },
        {
          "internalType": "bytes4",
          "name": "erc721a",
          "type": "bytes4"
        }
      ],
      "stateMutability": "view",
      "type": "function"
    },
    {
      "inputs": [
        {
          "internalType": "address",
          "name": "_owner",
          "type": "address"
        }
      ],
      "name": "initialize",
      "outputs": [],
      "stateMutability": "nonpayable",
      "type": "function"
    },
    {
      "inputs": [],
      "name": "isInitialized",
      "outputs": [
        {
          "internalType": "bool",
          "name": "",
          "type": "bool"
        }
      ],
      "stateMutability": "view",
      "type": "function"
    }
  ],
  "bytecode": "0x608080604052346015576108af908161001a8239f35b5f80fdfe6080806040526004361015610012575f80fd5b5f3560e01c9081632d2d14511461069d57508063392e53cd1461066f578063413bfd2d146105ea5780636bd50cef1461050c57806390ae68ea1461049c5763c4d66de81461005e575f80fd5b34610498576020366003190112610498576004356001600160a01b03811690819003610498578015610489577fc8fcad8db84d3cc18b4c41d551ea0ee66dd599cde068d998e57d5e09332c131c546001600160a01b0316330361047a5760ff5f51602061085a5f395f51905f52541661046c576100e85f51602061081a5f395f51905f525461072a565b601f8111610418575b7f3f83285bf23a3638c3b6c33f454461f2deaef7c7b3ded7bcc1d465cd89bad26f602083603e7f68747470733a2f2f76322e656d626c656d7661756c742e696f2f6d6574612f00015f51602061081a5f395f51905f5255806bffffffffffffffffffffffff60a01b7feae6a9186ef8c9a9c621be57187141839c5405aaab5291e1ca9745c5e148d4185416177feae6a9186ef8c9a9c621be57187141839c5405aaab5291e1ca9745c5e148d418556bf4a95f2600000000000000006774a1476fd9b67a266bffffffffffffffffffffffff195f51602061083a5f395f51905f52541617175f51602061083a5f395f51905f5255805f527feae6a9186ef8c9a9c621be57187141839c5405aaab5291e1ca9745c5e148d415825260405f20600160ff1982541617905560017feae6a9186ef8c9a9c621be57187141839c5405aaab5291e1ca9745c5e148d421557f71711558f06d04c21656e04e1e15b8fe9959d3312b401a3dee6dd59612bd54d88260016201000062ffffff195f51602061085a5f395f51905f525416171792835f51602061085a5f395f51905f52556040519060608252807f21f817ed3a93b5575f91ad8b20584aff63d942a6a85fd7f589c79aa8d9ef19236102c360608501610762565b938060ff8960081c161515958688830152600160408301520390a25f51602061083a5f395f51905f5254604051848152600785820152664552433131353560c81b60408201527ffadf29e8b9c201bf251a95013131967dee727047077cd2de4764225126bad3bc606063ffffffff60e01b8460e01b1692a260405184815260058582015264045524332360dc1b60408201527ffadf29e8b9c201bf251a95013131967dee727047077cd2de4764225126bad3bc606063ffffffff60e01b8460c01b1692a27ffadf29e8b9c201bf251a95013131967dee727047077cd2de4764225126bad3bc606060405192868452600787850152664552433732314160c81b604085015263ffffffff60e01b9060a01b1692a27f4547192f3138cddb6537d8f72e08eddee71303a23fb02b231fc82af146ff3f928360405160018152a2604051908152a160ff6040519160101c1615158152a1005b5f51602061081a5f395f51905f525f52601f0160051c7f0127c1d48e0f8c5b9ef3381d76413764dc5fee45d0830f6ba0ce0f09a4bb169c908101905b81811061046157506100f1565b5f8155600101610454565b62dc149f60e41b5f5260045ffd5b63bfcafd3760e01b5f5260045ffd5b63d92e233d60e01b5f5260045ffd5b5f80fd5b34610498575f36600319011261049857604051604081019080821067ffffffffffffffff8311176104f8576104f49160405260058152640302e312e360dc1b60208201526040519182916020835260208301906106eb565b0390f35b634e487b7160e01b5f52604160045260245ffd5b34610498575f366003190112610498577feae6a9186ef8c9a9c621be57187141839c5405aaab5291e1ca9745c5e148d418545f51602061085a5f395f51905f52547feae6a9186ef8c9a9c621be57187141839c5405aaab5291e1ca9745c5e148d4215460405191926001600160a01b031690601f19601f8461058d81610762565b030116830183811067ffffffffffffffff8211176104f8576105c39460ff9160405260405195869560a0875260a08701906106eb565b936020860152818160101c161515604086015260081c161515606084015260808301520390f35b34610498575f36600319011261049857606060018060a01b037fc8fcad8db84d3cc18b4c41d551ea0ee66dd599cde068d998e57d5e09332c131c541660ff5f51602061085a5f395f51905f5254167feae6a9186ef8c9a9c621be57187141839c5405aaab5291e1ca9745c5e148d4215490604051928352151560208301526040820152f35b34610498575f36600319011261049857602060ff5f51602061085a5f395f51905f5254166040519015158152f35b34610498575f366003190112610498575f51602061083a5f395f51905f52546001600160e01b031960e082901b8116835260c082901b8116602084015260a09190911b166040820152606090f35b91908251928382525f5b848110610715575050825f602080949584010152601f8019910116010190565b806020809284010151828286010152016106f5565b90600182811c92168015610758575b602083101461074457565b634e487b7160e01b5f52602260045260245ffd5b91607f1691610739565b5f51602061081a5f395f51905f52545f929161077d8261072a565b80825291600181169081156107fd5750600114610798575050565b5f51602061081a5f395f51905f525f9081529293509091907f0127c1d48e0f8c5b9ef3381d76413764dc5fee45d0830f6ba0ce0f09a4bb169c5b8383106107e3575060209250010190565b6001816020929493945483858701015201910191906107d2565b9050602093945060ff929192191683830152151560051b01019056feeae6a9186ef8c9a9c621be57187141839c5405aaab5291e1ca9745c5e148d417eae6a9186ef8c9a9c621be57187141839c5405aaab5291e1ca9745c5e148d41eeae6a9186ef8c9a9c621be57187141839c5405aaab5291e1ca9745c5e148d413a264697066735822122095a970f9ac2c3d6d138b13e2b2099db635f3f05ba7d4559d5aa3e3d06a56bea564736f6c634300081c0033",
  "linkReferences": {},
  "deployedLinkReferences": {}
}